{
  "abi": [
    {
      "inputs": [],
      "name": "DiamondWritable__InvalidInitializationParameters",
      "type": "error"
    },
    {
      "inputs": [],
      "name": "DiamondWritable__RemoveTargetNotZeroAddress",
      "type": "error"
    },
    {
      "inputs": [],
      "name": "DiamondWritable__ReplaceTargetIsIdentical",
      "type": "error"
    },
    {
      "inputs": [],
      "name": "DiamondWritable__SelectorAlreadyAdded",
      "type": "error"
    },
    {
      "inputs": [],
      "name": "DiamondWritable__SelectorIsImmutable",
      "type": "error"
    },
    {
      "inputs": [],
      "name": "DiamondWritable__SelectorNotFound",
      "type": "error"
    },
    {
      "inputs": [],
      "name": "DiamondWritable__SelectorNotSpecified",
      "type": "error"
    },
    {
      "inputs": [],
      "name": "DiamondWritable__TargetHasNoCode",
      "type": "error"
    },
    {
      "inputs": [],
      "name": "ERC165Base__InvalidInterfaceId",
      "type": "error"
    },
    {
      "inputs": [],
      "name": "Ownable__NotOwner",
      "type": "error"
    },
    {
      "inputs": [],
      "name": "Ownable__NotTransitiveOwner",
      "type": "error"
    },
    {
      "inputs": [],
      "name": "Proxy__ImplementationIsNotContract",
      "type": "error"
    },
    {
      "inputs": [],
      "name": "SafeOwnable__NotNomineeOwner",
      "type": "error"
    },
    {
      "anonymous": false,
      "inputs": [
        {
          "components": [
            {
              "internalType": "address",
              "name": "target",
              "type": "address"
            },
            {
              "internalType": "enum IDiamondWritableInternal.FacetCutAction",
              "name": "action",
              "type": "uint8"
            },
            {
              "internalType": "bytes4[]",
              "name": "selectors",
              "type": "bytes4[]"
            }
          ],
          "indexed": false,
          "internalType": "struct IDiamondWritableInternal.FacetCut[]",
          "name": "facetCuts",
          "type": "tuple[]"
        },
        {
          "indexed": false,
          "internalType": "address",
          "name": "target",
          "type": "address"
        },
        {
          "indexed": false,
          "internalType": "bytes",
          "name": "data",
          "type": "bytes"
        }
      ],
      "name": "DiamondCut",
      "type": "event"
    },
    {
      "anonymous": false,
      "inputs": [
        {
          "indexed": true,
          "internalType": "address",
          "name": "previousOwner",
          "type": "address"
        },
        {
          "indexed": true,
          "internalType": "address",
          "name": "newOwner",
          "type": "address"
        }
      ],
      "name": "OwnershipTransferred",
      "type": "event"
    },
    {
      "stateMutability": "payable",
      "type": "fallback"
    },
    {
      "inputs": [],
      "name": "acceptOwnership",
      "outputs": [],
      "stateMutability": "nonpayable",
      "type": "function"
    },
    {
      "inputs": [
        {
          "components": [
            {
              "internalType": "address",
              "name": "target",
              "type": "address"
            },
            {
              "internalType": "enum IDiamondWritableInternal.FacetCutAction",
              "name": "action",
              "type": "uint8"
            },
            {
              "internalType": "bytes4[]",
              "name": "selectors",
              "type": "bytes4[]"
            }
          ],
          "internalType": "struct IDiamondWritableInternal.FacetCut[]",
          "name": "facetCuts",
          "type": "tuple[]"
        },
        {
          "internalType": "address",
          "name": "target",
          "type": "address"
        },
        {
          "internalType": "bytes",
          "name": "data",
          "type": "bytes"
        }
      ],
      "name": "diamondCut",
      "outputs": [],
      "stateMutability": "nonpayable",
      "type": "function"
    },
    {
      "inputs": [
        {
          "internalType": "bytes4",
          "name": "selector",
          "type": "bytes4"
        }
      ],
      "name": "facetAddress",
      "outputs": [
        {
          "internalType": "address",
          "name": "facet",
          "type": "address"
        }
      ],
      "stateMutability": "view",
      "type": "function"
    },
    {
      "inputs": [],
      "name": "facetAddresses",
      "outputs": [
        {
          "internalType": "address[]",
          "name": "addresses",
          "type": "address[]"
        }
      ],
      "stateMutability": "view",
      "type": "function"
    },
    {
      "inputs": [
        {
          "internalType": "address",
          "name": "facet",
          "type": "address"
        }
      ],
      "name": "facetFunctionSelectors",
      "outputs": [
        {
          "internalType": "bytes4[]",
          "name": "selectors",
          "type": "bytes4[]"
        }
      ],
      "stateMutability": "view",
      "type": "function"
    },
    {
      "inputs": [],
      "name": "facets",
      "outputs": [
        {
          "components": [
            {
              "internalType": "address",
              "name": "target",
              "type": "address"
            },
            {
              "internalType": "bytes4[]",
              "name": "selectors",
              "type": "bytes4[]"
            }
          ],
          "internalType": "struct IDiamondReadable.Facet[]",
          "name": "diamondFacets",
          "type": "tuple[]"
        }
      ],
      "stateMutability": "view",
      "type": "function"
    },
    {
      "inputs": [],
      "name": "getFallbackAddress",
      "outputs": [
        {
          "internalType": "address",
          "name": "fallbackAddress",
          "type": "address"
        }
      ],
      "stateMutability": "view",
      "type": "function"
    },
    {
      "inputs": [],
      "name": "nomineeOwner",
      "outputs": [
        {
          "internalType": "address",
          "name": "",
          "type": "address"
        }
      ],
      "stateMutability": "view",
      "type": "function"
    },
    {
      "inputs": [],
      "name": "owner",
      "outputs": [
        {
          "internalType": "address",
          "name": "",
          "type": "address"
        }
      ],
      "stateMutability": "view",
      "type": "function"
    },
    {
      "inputs": [
        {
          "internalType": "address",
          "name": "fallbackAddress",
          "type": "address"
        }
      ],
      "name": "setFallbackAddress",
      "outputs": [],
      "stateMutability": "nonpayable",
      "type": "function"
    },
    {
      "inputs": [
        {
          "internalType": "bytes4",
          "name": "interfaceId",
          "type": "bytes4"
        }
      ],
      "name": "supportsInterface",
      "outputs": [
        {
          "internalType": "bool",
          "name": "",
          "type": "bool"
        }
      ],
      "stateMutability": "view",
      "type": "function"
    },
    {
      "inputs": [
        {
          "internalType": "address",
          "name": "account",
          "type": "address"
        }
      ],
      "name": "transferOwnership",
      "outputs": [],
      "stateMutability": "nonpayable",
      "type": "function"
    },
    {
      "stateMutability": "payable",
      "type": "receive"
    }
  ],
  "bytecode": {
    "object": "0x60806040523480156200001157600080fd5b5060408051600c8082526101a0820190925260009160208201610180803683370190505090506000632c40805960e01b82826200004e8162000d22565b93508151811062000063576200006362000d4a565b6001600160e01b031990921660209283029190910190910152639142376560e01b8282620000918162000d22565b935081518110620000a657620000a662000d4a565b6001600160e01b031990921660209283029190910190910152620000d3632f40adcf60e21b600162000480565b6307e4c70760e21b8282620000e88162000d22565b935081518110620000fd57620000fd62000d4a565b6001600160e01b0319909216602092830291909101909101526200012a6307e4c70760e21b600162000480565b637a0ed62760e01b82826200013f8162000d22565b93508151811062000154576200015462000d4a565b6001600160e01b0319909216602092830291909101909101526356fe50af60e11b8282620001828162000d22565b93508151811062000197576200019762000d4a565b6001600160e01b0319909216602092830291909101909101526314bbdacb60e21b8282620001c58162000d22565b935081518110620001da57620001da62000d4a565b6001600160e01b0319909216602092830291909101909101526366ffd66360e11b8282620002088162000d22565b9350815181106200021d576200021d62000d4a565b6001600160e01b0319909216602092830291909101909101526200024a6348e2b09360e01b600162000480565b6301ffc9a760e01b82826200025f8162000d22565b93508151811062000274576200027462000d4a565b6001600160e01b031990921660209283029190910190910152620002a16301ffc9a760e01b600162000480565b638da5cb5b60e01b8282620002b68162000d22565b935081518110620002cb57620002cb62000d4a565b6001600160e01b03199092166020928302919091019091015263455a8a8560e11b8282620002f98162000d22565b9350815181106200030e576200030e62000d4a565b6001600160e01b03199092166020928302919091019091015263f2fde38b60e01b82826200033c8162000d22565b93508151811062000351576200035162000d4a565b6001600160e01b0319909216602092830291909101909101526379ba509760e01b82826200037f8162000d22565b93508151811062000394576200039462000d4a565b6001600160e01b031990921660209283029190910190910152620003c16307f5828d60e41b600162000480565b604080516001808252818301909252600091816020015b60408051606080820183526000808352602083015291810191909152815260200190600190039081620003d8579050506040805160608101909152308152909150602081016000815260200184815250816000815181106200043e576200043e62000d4a565b60200260200101819052506200046c81600060405180602001604052806000815250620004f760201b60201c565b6200047733620006f8565b50505062000eef565b6001600160e01b03198083169003620004ac5760405163b0a19dd560e01b815260040160405180910390fd5b6001600160e01b03199190911660009081527ffc606c433378e3a7e0a6a531deac289b66caa1b4aa8554fd4ab2c6f1570f92d860205260409020805460ff1916911515919091179055565b7f177481ac65e4292921c69f62d1cc7f57541261e5d61c8175cf4e36a01c9bfc94547f177481ac65e4292921c69f62d1cc7f57541261e5d61c8175cf4e36a01c9bfc939061ffff811690819060009060071615620005675750600381901c60009081526002840160205260409020545b60005b8751811015620006665760008882815181106200058b576200058b62000d4a565b60200260200101519050600081602001519050816040015151600003620005c55760405163eb6c3aeb60e01b815260040160405180910390fd5b6000816002811115620005dc57620005dc62000d60565b03620005fb57620005f08786868562000772565b90955093506200065b565b600181600281111562000612576200061262000d60565b036200062a57620006248783620008ba565b6200065b565b600281600281111562000641576200064162000d60565b036200065b57620006558786868562000a09565b90955093505b50506001016200056a565b50828214620006835760018401805461ffff191661ffff84161790555b6007821615620006a657600382901c600090815260028501602052604090208190555b7f8faa70878671ccd212d20771b795c50af8fd3ff6cf27f4bde57e5d4de0aeb673878787604051620006db9392919062000dca565b60405180910390a1620006ef868662000c35565b50505050505050565b7f8a22373512790c48b83a1fe2efdd2888d4a917bcdc24d0adf63e60f67168046080546040516001600160a01b038481169216907f8be0079c531659141344cd1fd0a4f28419497f9722a3daafe3b4186f6b6457e090600090a380546001600160a01b0319166001600160a01b0392909216919091179055565b805160009081906001600160a01b031630148015906200079b575082516001600160a01b03163b155b15620007ba57604051633ddc5cab60e21b815260040160405180910390fd5b60005b836040015151811015620008ad57600084604001518281518110620007e657620007e662000d4a565b6020908102919091018101516001600160e01b031981166000908152918a9052604090912054909150606081901c156200083357604051634923a77160e11b815260040160405180910390fd5b85516001600160e01b0319838116600081815260208d90526040902060609390931b6001600160601b0319168b1790925560058a901b60e090811692831c91831c199990991617978190036200089d57600389901c600090815260028b0160205260408120989098555b50505060019586019501620007bd565b5093959294509192505050565b80516001600160a01b03163b620008e457604051633ddc5cab60e21b815260040160405180910390fd5b60005b81604001515181101562000a045760008260400151828151811062000910576200091062000d4a565b6020908102919091018101516001600160e01b03198116600090815291869052604090912054909150606081901c806200095d576040516337e25a9760e11b815260040160405180910390fd5b306001600160a01b03821603620009875760405163e983573160e01b815260040160405180910390fd5b84600001516001600160a01b0316816001600160a01b031603620009be576040516330baabf360e11b815260040160405180910390fd5b5083516001600160e01b031992909216600090815260208690526040902060609290921b6001600160601b0319166001600160601b0391909116179055600101620008e7565b505050565b805160009081906001600160a01b03161562000a3857604051633ab3490960e21b815260040160405180910390fd5b600385901c6007861660005b85604001515181101562000c215760008660400151828151811062000a6d5762000a6d62000d4a565b6020908102919091018101516001600160e01b031981166000908152918c9052604090912054909150606081901c62000ab9576040516337e25a9760e11b815260040160405180910390fd5b30606082901c0362000ade5760405163e983573160e01b815260040160405180910390fd5b600089900362000b0c57600019909401600081815260028c0160205260409020549850936007935062000b14565b600019909301925b600584901b89901b6000806001600160e01b03198084169086161462000b67576001600160e01b03198316600090815260208f90526040902080546001600160601b0319166001600160601b0386161790555b50506001600160e01b03198316600090815260208d90526040812055611fff600383901c1660e0600584901b1687821462000bcc57600082815260028f016020526040902080546001600160e01b031980841c19909116908516831c17905562000bf0565b80836001600160e01b031916901c816001600160e01b031960001b901c198d16179b505b8660000362000c0f57600088815260028f01602052604081208190559b505b50506001909301925062000a44915050565b5060039190911b1796939550929350505050565b8051156001600160a01b038316151462000c62576040516326df4ccd60e01b815260040160405180910390fd5b6001600160a01b0382161562000d1e576001600160a01b038216301462000cac576001600160a01b0382163b62000cac57604051633ddc5cab60e21b815260040160405180910390fd5b6000826001600160a01b03168260405162000cc8919062000ed1565b600060405180830381855af49150503d806000811462000d05576040519150601f19603f3d011682016040523d82523d6000602084013e62000d0a565b606091505b505090508062000a04573d6000803e3d6000fd5b5050565b60006001820162000d4357634e487b7160e01b600052601160045260246000fd5b5060010190565b634e487b7160e01b600052603260045260246000fd5b634e487b7160e01b600052602160045260246000fd5b60005b8381101562000d9357818101518382015260200162000d79565b50506000910152565b6000815180845262000db681602086016020860162000d76565b601f01601f19169290920160200192915050565b60006060808301818452808751808352608092508286019150828160051b8701016020808b0160005b8481101562000e9f57898403607f19018652815180516001600160a01b0316855283810151898601906003811062000e3b57634e487b7160e01b600052602160045260246000fd5b868601526040918201519186018a905281519081905290840190600090898701905b8083101562000e895783516001600160e01b031916825292860192600192909201919086019062000e5d565b5097850197955050509082019060010162000df3565b50506001600160a01b038a1690880152868103604088015262000ec3818962000d9c565b9a9950505050505050505050565b6000825162000ee581846020870162000d76565b9190910192915050565b611bca8062000eff6000396000f3fe6080604052600436106100ab5760003560e01c80638ab5150a116100645780638ab5150a146102205780638da5cb5b14610235578063914237651461024a578063adfca15e1461026a578063cdffacc614610297578063f2fde38b146102de576100b2565b806301ffc9a71461010c5780631f931c1c1461017a5780632c4080591461019a57806352ef6b2c146101c757806379ba5097146101e95780637a0ed627146101fe576100b2565b366100b257005b60006100bc6102fe565b90506001600160a01b0381163b6100e6576040516321f27f0d60e21b815260040160405180910390fd5b3660008037600080366000845af43d6000803e808015610105573d6000f35b3d6000fd5b005b34801561011857600080fd5b5061016561012736600461153d565b6001600160e01b03191660009081527ffc606c433378e3a7e0a6a531deac289b66caa1b4aa8554fd4ab2c6f1570f92d8602052604090205460ff1690565b60405190151581526020015b60405180910390f35b34801561018657600080fd5b5061010a6101953660046115bf565b61030d565b3480156101a657600080fd5b506101af610397565b6040516001600160a01b039091168152602001610171565b3480156101d357600080fd5b506101dc6103ca565b6040516101719190611671565b3480156101f557600080fd5b5061010a61057c565b34801561020a57600080fd5b506102136105bf565b6040516101719190611703565b34801561022c57600080fd5b506101af6109f6565b34801561024157600080fd5b506101af610a00565b34801561025657600080fd5b5061010a610265366004611780565b610a0a565b34801561027657600080fd5b5061028a610285366004611780565b610a83565b604051610171919061179b565b3480156102a357600080fd5b506101af6102b236600461153d565b6001600160e01b0319166000908152600080516020611b75833981519152602052604090205460601c90565b3480156102ea57600080fd5b5061010a6102f9366004611780565b610bde565b6000610308610c20565b905090565b610315610c81565b6001600160a01b0316336001600160a01b03161461034657604051632f7a8ee160e01b815260040160405180910390fd5b6103906103538587611871565b8484848080601f016020809104026020016040519081016040528093929190818152602001838380828437600092019190915250610cb492505050565b5050505050565b60006103087f177481ac65e4292921c69f62d1cc7f57541261e5d61c8175cf4e36a01c9bfc96546001600160a01b031690565b600080516020611b5583398151915254606090600080516020611b758339815191529061ffff1667ffffffffffffffff811115610409576104096117dd565b604051908082528060200260200182016040528015610432578160200160208202803683370190505b50915060008060005b600184015461ffff16821015610574576000818152600285016020526040812054905b600881101561055f5783610471816119bb565b600188015490955061ffff168511905061055f57600581901b82901b6001600160e01b0319811660009081526020889052604081205460601c90805b88811015610502578a81815181106104c7576104c76119d4565b60200260200101516001600160a01b0316836001600160a01b0316036104f05760019150610502565b806104fa816119bb565b9150506104ad565b5080156105115750505061054d565b818a8981518110610524576105246119d4565b6001600160a01b039092166020928302919091019091015287610546816119bb565b9850505050505b80610557816119bb565b91505061045e565b5050808061056c906119bb565b91505061043b565b505082525090565b610584610e70565b6001600160a01b0316336001600160a01b0316146105b55760405163efd1052d60e01b815260040160405180910390fd5b6105bd610e98565b565b600080516020611b5583398151915254606090600080516020611b758339815191529061ffff1667ffffffffffffffff8111156105fe576105fe6117dd565b60405190808252806020026020018201604052801561064457816020015b60408051808201909152600081526060602082015281526020019060019003908161061c5790505b50600182015490925060009061ffff1667ffffffffffffffff81111561066c5761066c6117dd565b604051908082528060200260200182016040528015610695578160200160208202803683370190505b50905060008060005b600185015461ffff16821015610984576000818152600286016020526040812054905b600881101561096f57836106d4816119bb565b600189015490955061ffff168511905061096f57600581901b82901b6001600160e01b0319811660009081526020899052604081205460601c90805b8881101561082d57826001600160a01b03168c8281518110610734576107346119d4565b6020026020010151600001516001600160a01b03160361081b57838c8281518110610761576107616119d4565b6020026020010151602001518b838151811061077f5761077f6119d4565b602002602001015160ff168151811061079a5761079a6119d4565b60200260200101906001600160e01b03191690816001600160e01b0319168152505060ff8a82815181106107d0576107d06119d4565b602002602001015160ff16106107e557600080fd5b8981815181106107f7576107f76119d4565b60200260200101805180919061080c906119ea565b60ff169052506001915061082d565b80610825816119bb565b915050610710565b50801561083c5750505061095d565b818b898151811061084f5761084f6119d4565b60209081029190910101516001600160a01b03909116905260018a015461ffff1667ffffffffffffffff811115610888576108886117dd565b6040519080825280602002602001820160405280156108b1578160200160208202803683370190505b508b89815181106108c4576108c46119d4565b602002602001015160200181905250828b89815181106108e6576108e66119d4565b602002602001015160200151600081518110610904576109046119d4565b60200260200101906001600160e01b03191690816001600160e01b03191681525050600189898151811061093a5761093a6119d4565b60ff9092166020928302919091019091015287610956816119bb565b9850505050505b80610967816119bb565b9150506106c1565b5050808061097c906119bb565b91505061069e565b5060005b828110156109eb5760008482815181106109a4576109a46119d4565b602002602001015160ff16905060008783815181106109c5576109c56119d4565b6020026020010151602001519050818152505080806109e3906119bb565b915050610988565b508185525050505090565b6000610308610e70565b6000610308610c81565b610a12610c81565b6001600160a01b0316336001600160a01b031614610a4357604051632f7a8ee160e01b815260040160405180910390fd5b7f177481ac65e4292921c69f62d1cc7f57541261e5d61c8175cf4e36a01c9bfc9680546001600160a01b0319166001600160a01b03831617905550565b50565b600080516020611b5583398151915254606090600080516020611b758339815191529061ffff1667ffffffffffffffff811115610ac257610ac26117dd565b604051908082528060200260200182016040528015610aeb578160200160208202803683370190505b50915060008060005b600184015461ffff16821015610bd4576000818152600285016020526040812054905b6008811015610bbf5783610b2a816119bb565b600188015490955061ffff1685119050610bbf57600581901b82901b6001600160e01b0319811660009081526020889052604090205460601c6001600160a01b038a1603610bac5780888781518110610b8557610b856119d4565b6001600160e01b03199092166020928302919091019091015285610ba8816119bb565b9650505b5080610bb7816119bb565b915050610b17565b50508080610bcc906119bb565b915050610af4565b5050825250919050565b610be6610c81565b6001600160a01b0316336001600160a01b031614610c1757604051632f7a8ee160e01b815260040160405180910390fd5b610a8081610ed2565b600080356001600160e01b0319168152600080516020611b75833981519152602052604090205460601c80610c7e57507f177481ac65e4292921c69f62d1cc7f57541261e5d61c8175cf4e36a01c9bfc96546001600160a01b031690565b90565b60007f8a22373512790c48b83a1fe2efdd2888d4a917bcdc24d0adf63e60f6716804605b546001600160a01b0316919050565b600080516020611b5583398151915254600080516020611b758339815191529061ffff811690819060009060071615610cff5750600381901c60009081526002840160205260409020545b60005b8751811015610de4576000888281518110610d1f57610d1f6119d4565b60200260200101519050600081602001519050816040015151600003610d585760405163eb6c3aeb60e01b815260040160405180910390fd5b6000816002811115610d6c57610d6c611a09565b03610d8757610d7d87868685610f15565b9095509350610dda565b6001816002811115610d9b57610d9b611a09565b03610daf57610daa8783611054565b610dda565b6002816002811115610dc357610dc3611a09565b03610dda57610dd48786868561119f565b90955093505b5050600101610d02565b50828214610e005760018401805461ffff191661ffff84161790555b6007821615610e2257600382901c600090815260028501602052604090208190555b7f8faa70878671ccd212d20771b795c50af8fd3ff6cf27f4bde57e5d4de0aeb673878787604051610e5593929190611a6f565b60405180910390a1610e6786866113c2565b50505050505050565b60007f24aa1f7b31fd188a8d3ecfb06bc55c806040e59b03bd4396283442fce6617890610ca5565b610ea1336114a6565b7f24aa1f7b31fd188a8d3ecfb06bc55c806040e59b03bd4396283442fce661789080546001600160a01b0319169055565b7f24aa1f7b31fd188a8d3ecfb06bc55c806040e59b03bd4396283442fce661789080546001600160a01b0319166001600160a01b038316179055610a8081818181565b805160009081906001600160a01b03163014801590610f3d575082516001600160a01b03163b155b15610f5b57604051633ddc5cab60e21b815260040160405180910390fd5b60005b83604001515181101561104757600084604001518281518110610f8357610f836119d4565b6020908102919091018101516001600160e01b031981166000908152918a9052604090912054909150606081901c15610fcf57604051634923a77160e11b815260040160405180910390fd5b85516001600160e01b0319838116600081815260208d90526040902060609390931b6001600160601b0319168b1790925560058a901b60e090811692831c91831c1999909916179781900361103857600389901c600090815260028b0160205260408120989098555b50505060019586019501610f5e565b5093959294509192505050565b80516001600160a01b03163b61107d57604051633ddc5cab60e21b815260040160405180910390fd5b60005b81604001515181101561119a576000826040015182815181106110a5576110a56119d4565b6020908102919091018101516001600160e01b03198116600090815291869052604090912054909150606081901c806110f1576040516337e25a9760e11b815260040160405180910390fd5b306001600160a01b0382160361111a5760405163e983573160e01b815260040160405180910390fd5b84600001516001600160a01b0316816001600160a01b031603611150576040516330baabf360e11b815260040160405180910390fd5b5083516001600160e01b031992909216600090815260208690526040902060609290921b6001600160601b0319166bffffffffffffffffffffffff91909116179055600101611080565b505050565b805160009081906001600160a01b0316156111cd57604051633ab3490960e21b815260040160405180910390fd5b600385901c6007861660005b8560400151518110156113ae576000866040015182815181106111fe576111fe6119d4565b6020908102919091018101516001600160e01b031981166000908152918c9052604090912054909150606081901c611249576040516337e25a9760e11b815260040160405180910390fd5b30606082901c0361126d5760405163e983573160e01b815260040160405180910390fd5b600089900361129957600019909401600081815260028c016020526040902054985093600793506112a1565b600019909301925b600584901b89901b6000806001600160e01b0319808416908616146112f8576001600160e01b03198316600090815260208f90526040902080546001600160601b0319166bffffffffffffffffffffffff86161790555b50506001600160e01b03198316600090815260208d90526040812055611fff600383901c1660e0600584901b1687821461135b57600082815260028f016020526040902080546001600160e01b031980841c19909116908516831c17905561137f565b80836001600160e01b031916901c816001600160e01b031960001b901c198d16179b505b8660000361139d57600088815260028f01602052604081208190559b505b5050600190930192506111d9915050565b5060039190911b1796939550929350505050565b8051156001600160a01b03831615146113ee576040516326df4ccd60e01b815260040160405180910390fd5b6001600160a01b038216156114a2576001600160a01b0382163014611435576001600160a01b0382163b61143557604051633ddc5cab60e21b815260040160405180910390fd5b6000826001600160a01b03168260405161144f9190611b38565b600060405180830381855af49150503d806000811461148a576040519150601f19603f3d011682016040523d82523d6000602084013e61148f565b606091505b505090508061119a573d6000803e3d6000fd5b5050565b7f8a22373512790c48b83a1fe2efdd2888d4a917bcdc24d0adf63e60f67168046080546040516001600160a01b038481169216907f8be0079c531659141344cd1fd0a4f28419497f9722a3daafe3b4186f6b6457e090600090a380546001600160a01b0319166001600160a01b0392909216919091179055565b80356001600160e01b03198116811461153857600080fd5b919050565b60006020828403121561154f57600080fd5b61155882611520565b9392505050565b80356001600160a01b038116811461153857600080fd5b60008083601f84011261158857600080fd5b50813567ffffffffffffffff8111156115a057600080fd5b6020830191508360208285010111156115b857600080fd5b9250929050565b6000806000806000606086880312156115d757600080fd5b853567ffffffffffffffff808211156115ef57600080fd5b818801915088601f83011261160357600080fd5b81358181111561161257600080fd5b8960208260051b850101111561162757600080fd5b6020830197508096505061163d6020890161155f565b9450604088013591508082111561165357600080fd5b5061166088828901611576565b969995985093965092949392505050565b6020808252825182820181905260009190848201906040850190845b818110156116b25783516001600160a01b03168352928401929184019160010161168d565b50909695505050505050565b600081518084526020808501945080840160005b838110156116f85781516001600160e01b031916875295820195908201906001016116d2565b509495945050505050565b60006020808301818452808551808352604092508286019150828160051b87010184880160005b8381101561177257888303603f19018552815180516001600160a01b0316845287015187840187905261175f878501826116be565b958801959350509086019060010161172a565b509098975050505050505050565b60006020828403121561179257600080fd5b6115588261155f565b6020808252825182820181905260009190848201906040850190845b818110156116b25783516001600160e01b031916835292840192918401916001016117b7565b634e487b7160e01b600052604160045260246000fd5b6040516060810167ffffffffffffffff81118282101715611816576118166117dd565b60405290565b604051601f8201601f1916810167ffffffffffffffff81118282101715611845576118456117dd565b604052919050565b600067ffffffffffffffff821115611867576118676117dd565b5060051b60200190565b600061188461187f8461184d565b61181c565b83815260208082019190600586811b8601368111156118a257600080fd5b865b8181101561199857803567ffffffffffffffff808211156118c55760008081fd5b818a019150606082360312156118db5760008081fd5b6118e36117f3565b6118ec8361155f565b815286830135600381106119005760008081fd5b81880152604083810135838111156119185760008081fd5b939093019236601f85011261192f57600092508283fd5b8335925061193f61187f8461184d565b83815292871b8401880192888101903685111561195c5760008081fd5b948901945b848610156119815761197286611520565b82529489019490890190611961565b9183019190915250885250509483019483016118a4565b5092979650505050505050565b634e487b7160e01b600052601160045260246000fd5b6000600182016119cd576119cd6119a5565b5060010190565b634e487b7160e01b600052603260045260246000fd5b600060ff821660ff8103611a0057611a006119a5565b60010192915050565b634e487b7160e01b600052602160045260246000fd5b60005b83811015611a3a578181015183820152602001611a22565b50506000910152565b60008151808452611a5b816020860160208601611a1f565b601f01601f19169290920160200192915050565b6000606080830181845280875180835260808601915060808160051b87010192506020808a016000805b84811015611b0857898703607f19018652825180516001600160a01b031688528481015160038110611ad957634e487b7160e01b84526021600452602484fd5b88860152604090810151908801899052611af5898901826116be565b9750509483019491830191600101611a99565b5050506001600160a01b0389169087015250508381036040850152611b2d8186611a43565b979650505050505050565b60008251611b4a818460208701611a1f565b919091019291505056fe177481ac65e4292921c69f62d1cc7f57541261e5d61c8175cf4e36a01c9bfc94177481ac65e4292921c69f62d1cc7f57541261e5d61c8175cf4e36a01c9bfc93a264697066735822122018ffbf6a5882109f615474ccf40a1beac7ee3fd9a5c46f3f2deb24a1403eed0a64736f6c63430008130033",
    "linkReferences": {}
  },
  "methodIdentifiers": {
    "acceptOwnership()": "79ba5097",
    "diamondCut((address,uint8,bytes4[])[],address,bytes)": "1f931c1c",
    "facetAddress(bytes4)": "cdffacc6",
    "facetAddresses()": "52ef6b2c",
    "facetFunctionSelectors(address)": "adfca15e",
    "facets()": "7a0ed627",
    "getFallbackAddress()": "2c408059",
    "nomineeOwner()": "8ab5150a",
    "owner()": "8da5cb5b",
    "setFallbackAddress(address)": "91423765",
    "supportsInterface(bytes4)": "01ffc9a7",
    "transferOwnership(address)": "f2fde38b"
  },
  "id": 0
}