{
  "abi": [
    {
      "inputs": [],
      "name": "Ownable__NotOwner",
      "type": "error"
    },
    {
      "inputs": [],
      "name": "Ownable__NotTransitiveOwner",
      "type": "error"
    },
    {
      "anonymous": false,
      "inputs": [
        {
          "indexed": true,
          "internalType": "address",
          "name": "previousOwner",
          "type": "address"
        },
        {
          "indexed": true,
          "internalType": "address",
          "name": "newOwner",
          "type": "address"
        }
      ],
      "name": "OwnershipTransferred",
      "type": "event"
    },
    {
      "inputs": [
        {
          "internalType": "uint256",
          "name": "_cantomonId",
          "type": "uint256"
        }
      ],
      "name": "evolveCantomon",
      "outputs": [],
      "stateMutability": "nonpayable",
      "type": "function"
    },
    {
      "inputs": [
        {
          "internalType": "uint256",
          "name": "_cantomonId",
          "type": "uint256"
        }
      ],
      "name": "feedCantomon",
      "outputs": [],
      "stateMutability": "nonpayable",
      "type": "function"
    },
    {
      "inputs": [
        {
          "internalType": "uint256",
          "name": "_level",
          "type": "uint256"
        }
      ],
      "name": "getXpForEvo",
      "outputs": [
        {
          "internalType": "uint256",
          "name": "",
          "type": "uint256"
        }
      ],
      "stateMutability": "view",
      "type": "function"
    },
    {
      "inputs": [
        {
          "internalType": "uint256",
          "name": "_cantomonId",
          "type": "uint256"
        }
      ],
      "name": "myXpForEvo",
      "outputs": [
        {
          "internalType": "uint256",
          "name": "",
          "type": "uint256"
        }
      ],
      "stateMutability": "view",
      "type": "function"
    },
    {
      "inputs": [
        {
          "internalType": "uint256",
          "name": "_cantomonId",
          "type": "uint256"
        }
      ],
      "name": "trainCantomon",
      "outputs": [],
      "stateMutability": "nonpayable",
      "type": "function"
    }
  ],
  "bytecode": {
    "object": "0x608060405234801561001057600080fd5b50610522806100206000396000f3fe608060405234801561001057600080fd5b50600436106100575760003560e01c8063588889051461005c57806363ed493d146100715780637f0b4d4114610096578063c99aaee9146100a9578063edc31483146100da575b600080fd5b61006f61006a36600461045b565b6100ed565b005b61008461007f36600461045b565b61018f565b60405190815260200160405180910390f35b61006f6100a436600461045b565b6101d5565b6100846100b736600461045b565b60065461ffff166000908152600960209081526040808320938352929052205490565b61006f6100e836600461045b565b610353565b6040516331a9108f60e11b815260048101829052819033903090636352211e90602401602060405180830381865afa15801561012d573d6000803e3d6000fd5b505050506040513d601f19601f820116820180604052508101906101519190610474565b6001600160a01b0316146101805760405162461bcd60e51b8152600401610177906104a4565b60405180910390fd5b61018b8260016103e8565b5050565b600081815260076020908152604080832060055461ffff908116855260029091018352818420546006549091168452600983528184209084529091528120545b92915050565b6040516331a9108f60e11b815260048101829052819033903090636352211e90602401602060405180830381865afa158015610215573d6000803e3d6000fd5b505050506040513d601f19601f820116820180604052508101906102399190610474565b6001600160a01b03161461025f5760405162461bcd60e51b8152600401610177906104a4565b600061026a8361018f565b116102b05760405162461bcd60e51b815260206004820152601660248201527543616e746f6d6f6e2063616e6e6f742065766f6c766560501b6044820152606401610177565b600082815260076020908152604080832060055461ffff16845260020190915290206102db8361018f565b8160030154101561032e5760405162461bcd60e51b815260206004820152601b60248201527f43616e746f6d6f6e206e6565647320787020746f2065766f6c766500000000006044820152606401610177565b600060038201819055815460019183916103499084906104cb565b9091555050505050565b6040516331a9108f60e11b815260048101829052819033903090636352211e90602401602060405180830381865afa158015610393573d6000803e3d6000fd5b505050506040513d601f19601f820116820180604052508101906103b79190610474565b6001600160a01b0316146103dd5760405162461bcd60e51b8152600401610177906104a4565b61018b826001610426565b600082815260076020908152604080832060055461ffff1684526002019091528120600401805483929061041d9084906104cb565b90915550505050565b600082815260076020908152604080832060055461ffff1684526002019091528120600601805483929061041d9084906104cb565b60006020828403121561046d57600080fd5b5035919050565b60006020828403121561048657600080fd5b81516001600160a01b038116811461049d57600080fd5b9392505050565b6020808252600d908201526c2737ba1027232a1037bbb732b960991b604082015260600190565b808201808211156101cf57634e487b7160e01b600052601160045260246000fdfea2646970667358221220dbdea99840d9956e22178bf8d5d5802cf69fad1488b1d149d318e8fd3c70b57464736f6c63430008130033",
    "linkReferences": {}
  },
  "methodIdentifiers": {
    "evolveCantomon(uint256)": "7f0b4d41",
    "feedCantomon(uint256)": "edc31483",
    "getXpForEvo(uint256)": "c99aaee9",
    "myXpForEvo(uint256)": "63ed493d",
    "trainCantomon(uint256)": "58888905"
  },
  "id": 2
}