{
  "abi": [
    {
      "inputs": [],
      "name": "Ownable__NotOwner",
      "type": "error"
    },
    {
      "inputs": [],
      "name": "Ownable__NotTransitiveOwner",
      "type": "error"
    },
    {
      "anonymous": false,
      "inputs": [
        {
          "indexed": true,
          "internalType": "address",
          "name": "previousOwner",
          "type": "address"
        },
        {
          "indexed": true,
          "internalType": "address",
          "name": "newOwner",
          "type": "address"
        }
      ],
      "name": "OwnershipTransferred",
      "type": "event"
    },
    {
      "inputs": [
        {
          "internalType": "uint256",
          "name": "_dnaNumber",
          "type": "uint256"
        }
      ],
      "name": "_genSeed",
      "outputs": [
        {
          "internalType": "uint256",
          "name": "",
          "type": "uint256"
        }
      ],
      "stateMutability": "view",
      "type": "function"
    },
    {
      "inputs": [
        {
          "internalType": "uint256",
          "name": "_cantomonId",
          "type": "uint256"
        }
      ],
      "name": "evolveCantomon",
      "outputs": [],
      "stateMutability": "nonpayable",
      "type": "function"
    },
    {
      "inputs": [
        {
          "internalType": "uint256",
          "name": "_cantomonId",
          "type": "uint256"
        }
      ],
      "name": "feedCantomon_01",
      "outputs": [],
      "stateMutability": "nonpayable",
      "type": "function"
    },
    {
      "inputs": [
        {
          "internalType": "uint256",
          "name": "_cantomonId",
          "type": "uint256"
        }
      ],
      "name": "getHappiness",
      "outputs": [
        {
          "internalType": "uint256",
          "name": "",
          "type": "uint256"
        }
      ],
      "stateMutability": "view",
      "type": "function"
    },
    {
      "inputs": [
        {
          "internalType": "uint256",
          "name": "_cantomonId",
          "type": "uint256"
        }
      ],
      "name": "getXp",
      "outputs": [
        {
          "internalType": "uint256",
          "name": "",
          "type": "uint256"
        }
      ],
      "stateMutability": "view",
      "type": "function"
    },
    {
      "inputs": [
        {
          "internalType": "uint256",
          "name": "_level",
          "type": "uint256"
        }
      ],
      "name": "getXpForEvo",
      "outputs": [
        {
          "internalType": "uint256",
          "name": "",
          "type": "uint256"
        }
      ],
      "stateMutability": "view",
      "type": "function"
    },
    {
      "inputs": [
        {
          "internalType": "uint256",
          "name": "_cantomonId",
          "type": "uint256"
        }
      ],
      "name": "hatchCantomon",
      "outputs": [],
      "stateMutability": "nonpayable",
      "type": "function"
    },
    {
      "inputs": [
        {
          "internalType": "uint256",
          "name": "_cantomonId",
          "type": "uint256"
        }
      ],
      "name": "myXpForEvo",
      "outputs": [
        {
          "internalType": "uint256",
          "name": "",
          "type": "uint256"
        }
      ],
      "stateMutability": "view",
      "type": "function"
    },
    {
      "inputs": [
        {
          "internalType": "uint256",
          "name": "_cantomonId",
          "type": "uint256"
        }
      ],
      "name": "trainCantomon_01",
      "outputs": [],
      "stateMutability": "nonpayable",
      "type": "function"
    },
    {
      "inputs": [
        {
          "internalType": "uint256",
          "name": "_cantomonId",
          "type": "uint256"
        }
      ],
      "name": "trainCantomon_02",
      "outputs": [],
      "stateMutability": "nonpayable",
      "type": "function"
    }
  ],
  "bytecode": {
    "object": "0x608060405234801561001057600080fd5b50610ff1806100206000396000f3fe608060405234801561001057600080fd5b506004361061009e5760003560e01c80637f0b4d41116100665780637f0b4d411461013f57806381f4e28514610152578063c99aaee914610165578063d1def2f114610196578063e1b88e08146101a957600080fd5b80630935e301146100a35780632f78e373146100b8578063589a167d146100dd57806360eb73e71461011957806363ed493d1461012c575b600080fd5b6100b66100b1366004610e8c565b6101bc565b005b6100cb6100c6366004610e8c565b610329565b60405190815260200160405180910390f35b6100cb6100eb366004610e8c565b6040805142602080830191909152818301939093528151808203830181526060909101909152805191012090565b6100cb610127366004610e8c565b61036d565b6100cb61013a366004610e8c565b6103a9565b6100b661014d366004610e8c565b6103ef565b6100b6610160366004610e8c565b610878565b6100cb610173366004610e8c565b60065461ffff166000908152600960209081526040808320938352929052205490565b6100b66101a4366004610e8c565b610968565b6100b66101b7366004610e8c565b610b7a565b6040516331a9108f60e11b815260048101829052819033903090636352211e90602401602060405180830381865afa1580156101fc573d6000803e3d6000fd5b505050506040513d601f19601f820116820180604052508101906102209190610ea5565b6001600160a01b03161461024f5760405162461bcd60e51b815260040161024690610ed5565b60405180910390fd5b600082815260076020908152604080832060055461ffff168452600401909152902060010154829042906102859061012c610f12565b106102d25760405162461bcd60e51b815260206004820152601a60248201527f43616e746f6d6f6e206973207374696c6c20747261696e696e670000000000006044820152606401610246565b600081815260076020908152604080832060055461ffff1684526004019091528120600201805460019290610308908490610f12565b909155506103199050836001610d2f565b61032483600a610d6d565b505050565b600081815260076020908152604080832060055461ffff1684526002908101909252822001548161035984610dd4565b90506103658183610f25565b949350505050565b600081815260076020908152604080832060055461ffff1684526002019091528120600101548161039d84610e16565b90506103658183610f12565b600081815260076020908152604080832060055461ffff908116855260039091018352818420546006549091168452600983528184209084529091528120545b92915050565b6040516331a9108f60e11b815260048101829052819033903090636352211e90602401602060405180830381865afa15801561042f573d6000803e3d6000fd5b505050506040513d601f19601f820116820180604052508101906104539190610ea5565b6001600160a01b0316146104795760405162461bcd60e51b815260040161024690610ed5565b60065461ffff9081166000908152600960209081526040808320868452600783528184206005549095168452600390940182528083205483529290522054829061051a5760405162461bcd60e51b815260206004820152602c60248201527f43616e746f6d6f6e2063616e6e6f742065766f6c76652066757274686572206160448201526b1d081d1a1a5cc81c1bda5b9d60a21b6064820152608401610246565b6000610525846103a9565b1161056b5760405162461bcd60e51b815260206004820152601660248201527543616e746f6d6f6e2063616e6e6f742065766f6c766560501b6044820152606401610246565b600083815260076020908152604080832060055461ffff168452600301909152902080546105db5760405162461bcd60e51b815260206004820152601d60248201527f43616e746f6d6f6e206e6565647320746f2068617463682066697273740000006044820152606401610246565b600084815260076020908152604080832060055461ffff1684526002019091529020610606856103a9565b816001015410156106595760405162461bcd60e51b815260206004820181905260248201527f43616e746f6d6f6e206e65656473206d6f726520787020746f2065766f6c76656044820152606401610246565b60065461ffff16600090815260096020908152604080832060018681015485528101835281842080548351818602810186019094528084529194939091908301828280156106c657602002820191906000526020600020905b8154815260200190600101908083116106b2575b505050505090506106f86040518060800160405280600081526020016000815260200160008152602001600081525090565b6000805b83518110156107c45784600201600085838151811061071d5761071d610f38565b60200260200101518152602001908152602001600020604051806080016040529081600082015481526020016001820154815260200160028201548152602001600382015481525050925082602001518660020154106107b25782604001518660060154106107b25782606001518660050154106107b2578381815181106107a7576107a7610f38565b602002602001015191505b806107bc81610f4e565b9150506106fc565b50600089815260076020908152604080832060055461ffff1684526001018252808320848452600388019092528220546002820180549293919290919061080c908490610f12565b909155505060008281526003808701602052604082206001015490880180549192909161083a908490610f12565b90915550506000600180880182905560028801829055888101849055885490918991610867908490610f12565b909155505050505050505050505050565b6040516331a9108f60e11b815260048101829052819033903090636352211e90602401602060405180830381865afa1580156108b8573d6000803e3d6000fd5b505050506040513d601f19601f820116820180604052508101906108dc9190610ea5565b6001600160a01b0316146109025760405162461bcd60e51b815260040161024690610ed5565b60008281526007602090815260408083206005805461ffff90811686526004909201909352818420429055915490911682528120600201805484926001929161094c908490610f12565b9091555061095d905083600a610d6d565b610324836001610e57565b610971816103a9565b600082815260076020908152604080832060055461ffff16845260020190915290206001015410156109e55760405162461bcd60e51b815260206004820181905260248201527f43616e746f6d6f6e206e65656473206d6f726520787020746f2065766f6c76656044820152606401610246565b600081815260046020908152604080832081516060808201845282546001600160a01b0381168352600184015483870181905260029094015460ff1615158386015260055485519190921b6bffffffffffffffffffffffff191681870152603481019390935262010000900460f01b6001600160f01b03191660548301528251808303603601815260569092019092528051920191909120909190600084815260076020908152604080832060055461ffff1684526001019091528120828155919250610ab3600384610f7d565b610abe906001610f12565b9050806003811115610ad257610ad2610f91565b60018084018054909160ff1990911690836003811115610af457610af4610f91565b0217905550604080514260208083019190915281830186905282518083038401815260609092019092528051910120610b2e602882610f7d565b6002939093019290925560009485526007602090815260408087206005805461ffff9081168a526003909201909352818820600190819055925416875290952090940193909355505050565b6040516331a9108f60e11b815260048101829052819033903090636352211e90602401602060405180830381865afa158015610bba573d6000803e3d6000fd5b505050506040513d601f19601f82011682018060405250810190610bde9190610ea5565b6001600160a01b031614610c045760405162461bcd60e51b815260040161024690610ed5565b600082815260076020908152604080832060055461ffff16845260040190915290206001015482904290610c3a9061012c610f12565b10610c875760405162461bcd60e51b815260206004820152601a60248201527f43616e746f6d6f6e206973207374696c6c20747261696e696e670000000000006044820152606401610246565b600081815260076020908152604080832060055461ffff1684526004019091528120600201805460019290610cbd908490610f12565b9091555050600083815260076020908152604080832060055461ffff16845260010182529182902054825142818401528084019190915282518082038401815260609091019092528151910120610d1e84610d19600384610f7d565b610d2f565b610d2984600a610d6d565b50505050565b600082815260076020908152604080832060055461ffff16845260020190915281206003018054839290610d64908490610f12565b90915550505050565b600082815260076020908152604080832060055461ffff168452600290810190925290912090810154606490610da4908490610f12565b11610dc85781816002016000828254610dbd9190610f12565b925050819055610d29565b60646002909101555050565b600081815260076020908152604080832060055461ffff1684526003019091528120600201548190610e069042610f25565b90506000610365610e1083610fa7565b600081815260076020908152604080832060055461ffff1684526003019091528120600201548190610e489042610f25565b90506000610365603c83610fa7565b600082815260076020908152604080832060055461ffff16845260020190915281206004018054839290610d64908490610f12565b600060208284031215610e9e57600080fd5b5035919050565b600060208284031215610eb757600080fd5b81516001600160a01b0381168114610ece57600080fd5b9392505050565b6020808252600d908201526c2737ba1027232a1037bbb732b960991b604082015260600190565b634e487b7160e01b600052601160045260246000fd5b808201808211156103e9576103e9610efc565b818103818111156103e9576103e9610efc565b634e487b7160e01b600052603260045260246000fd5b600060018201610f6057610f60610efc565b5060010190565b634e487b7160e01b600052601260045260246000fd5b600082610f8c57610f8c610f67565b500690565b634e487b7160e01b600052602160045260246000fd5b600082610fb657610fb6610f67565b50049056fea26469706673582212208fbb301ba013690647d43dcd5408e8e706d1335149184e3dd5378a704103caae64736f6c63430008130033",
    "linkReferences": {}
  },
  "methodIdentifiers": {
    "_genSeed(uint256)": "589a167d",
    "evolveCantomon(uint256)": "7f0b4d41",
    "feedCantomon_01(uint256)": "81f4e285",
    "getHappiness(uint256)": "2f78e373",
    "getXp(uint256)": "60eb73e7",
    "getXpForEvo(uint256)": "c99aaee9",
    "hatchCantomon(uint256)": "d1def2f1",
    "myXpForEvo(uint256)": "63ed493d",
    "trainCantomon_01(uint256)": "0935e301",
    "trainCantomon_02(uint256)": "e1b88e08"
  },
  "id": 1
}