{
  "abi": [
    {
      "inputs": [],
      "name": "Ownable__NotOwner",
      "type": "error"
    },
    {
      "inputs": [],
      "name": "Ownable__NotTransitiveOwner",
      "type": "error"
    },
    {
      "anonymous": false,
      "inputs": [
        {
          "indexed": true,
          "internalType": "address",
          "name": "previousOwner",
          "type": "address"
        },
        {
          "indexed": true,
          "internalType": "address",
          "name": "newOwner",
          "type": "address"
        }
      ],
      "name": "OwnershipTransferred",
      "type": "event"
    },
    {
      "inputs": [
        {
          "internalType": "uint256",
          "name": "_evolutionId",
          "type": "uint256"
        },
        {
          "components": [
            {
              "internalType": "uint256",
              "name": "battlePower",
              "type": "uint256"
            },
            {
              "internalType": "uint256",
              "name": "skill",
              "type": "uint256"
            }
          ],
          "internalType": "struct EvolutionBonus",
          "name": "_evoBonus",
          "type": "tuple"
        }
      ],
      "name": "setEvolutionBonus",
      "outputs": [],
      "stateMutability": "nonpayable",
      "type": "function"
    },
    {
      "inputs": [
        {
          "internalType": "uint256",
          "name": "_evolutionId",
          "type": "uint256"
        },
        {
          "internalType": "uint256[]",
          "name": "_evoOptions",
          "type": "uint256[]"
        }
      ],
      "name": "setEvolutionOptions",
      "outputs": [],
      "stateMutability": "nonpayable",
      "type": "function"
    },
    {
      "inputs": [
        {
          "internalType": "uint256",
          "name": "_evolutionId",
          "type": "uint256"
        },
        {
          "components": [
            {
              "internalType": "uint256",
              "name": "evoStage",
              "type": "uint256"
            },
            {
              "internalType": "uint256",
              "name": "happiness",
              "type": "uint256"
            },
            {
              "internalType": "uint256",
              "name": "wins",
              "type": "uint256"
            },
            {
              "internalType": "uint256",
              "name": "battles",
              "type": "uint256"
            }
          ],
          "internalType": "struct EvolutionRequirements",
          "name": "_evoReq",
          "type": "tuple"
        }
      ],
      "name": "setEvolutionRequirements",
      "outputs": [],
      "stateMutability": "nonpayable",
      "type": "function"
    },
    {
      "inputs": [
        {
          "internalType": "uint256",
          "name": "_evoStage",
          "type": "uint256"
        },
        {
          "internalType": "uint256",
          "name": "_xpRequired",
          "type": "uint256"
        }
      ],
      "name": "setEvolutionXpforEvo",
      "outputs": [],
      "stateMutability": "nonpayable",
      "type": "function"
    },
    {
      "inputs": [
        {
          "internalType": "uint16",
          "name": "_gameSeason",
          "type": "uint16"
        }
      ],
      "name": "setGameSeason",
      "outputs": [],
      "stateMutability": "nonpayable",
      "type": "function"
    },
    {
      "inputs": [
        {
          "internalType": "uint16",
          "name": "_gameVersion",
          "type": "uint16"
        }
      ],
      "name": "setGameVersion",
      "outputs": [],
      "stateMutability": "nonpayable",
      "type": "function"
    }
  ],
  "bytecode": {
    "object": "0x608060405234801561001057600080fd5b50610537806100206000396000f3fe608060405234801561001057600080fd5b50600436106100625760003560e01c806357eda99214610067578063711e2b201461007c5780638329527d1461008f57806388358ba9146100a25780639a8ff4db146100b5578063d3dcbdd8146100c8575b600080fd5b61007a6100753660046103d3565b6100db565b005b61007a61008a3660046103fe565b61012c565b61007a61009d366004610436565b61019e565b61007a6100b03660046103d3565b6101fc565b61007a6100c3366004610458565b610255565b61007a6100d6366004610482565b6102de565b6100e3610345565b6001600160a01b0316336001600160a01b03161461011457604051632f7a8ee160e01b815260040160405180910390fd5b6005805461ffff191661ffff92909216919091179055565b610134610345565b6001600160a01b0316336001600160a01b03161461016557604051632f7a8ee160e01b815260040160405180910390fd5b60065461ffff16600090815260096020908152604080832085845260030182529091208235815590820135600182015581905b50505050565b6101a6610345565b6001600160a01b0316336001600160a01b0316146101d757604051632f7a8ee160e01b815260040160405180910390fd5b60065461ffff1660009081526009602090815260408083209483529390529190912055565b610204610345565b6001600160a01b0316336001600160a01b03161461023557604051632f7a8ee160e01b815260040160405180910390fd5b6005805461ffff909216620100000263ffff000019909216919091179055565b61025d610345565b6001600160a01b0316336001600160a01b03161461028e57604051632f7a8ee160e01b815260040160405180910390fd5b60065461ffff166000908152600960209081526040808320858452600201909152902081906101988282813581556020820135600182015560408201356002820155606082013560038201555050565b6102e6610345565b6001600160a01b0316336001600160a01b03161461031757604051632f7a8ee160e01b815260040160405180910390fd5b60065461ffff1660009081526009602090815260408083208684526001019091529020610198908383610373565b7f8a22373512790c48b83a1fe2efdd2888d4a917bcdc24d0adf63e60f671680460546001600160a01b031690565b8280548282559060005260206000209081019282156103ae579160200282015b828111156103ae578235825591602001919060010190610393565b506103ba9291506103be565b5090565b5b808211156103ba57600081556001016103bf565b6000602082840312156103e557600080fd5b813561ffff811681146103f757600080fd5b9392505050565b600080828403606081121561041257600080fd5b833592506040601f198201121561042857600080fd5b506020830190509250929050565b6000806040838503121561044957600080fd5b50508035926020909101359150565b60008082840360a081121561046c57600080fd5b833592506080601f198201121561042857600080fd5b60008060006040848603121561049757600080fd5b83359250602084013567ffffffffffffffff808211156104b657600080fd5b818601915086601f8301126104ca57600080fd5b8135818111156104d957600080fd5b8760208260051b85010111156104ee57600080fd5b602083019450809350505050925092509256fea26469706673582212209e621951ba53403092e77a5883af0c95e64b997b5242fc05bf02ab4459b001a464736f6c63430008130033",
    "linkReferences": {}
  },
  "methodIdentifiers": {
    "setEvolutionBonus(uint256,(uint256,uint256))": "711e2b20",
    "setEvolutionOptions(uint256,uint256[])": "d3dcbdd8",
    "setEvolutionRequirements(uint256,(uint256,uint256,uint256,uint256))": "9a8ff4db",
    "setEvolutionXpforEvo(uint256,uint256)": "8329527d",
    "setGameSeason(uint16)": "88358ba9",
    "setGameVersion(uint16)": "57eda992"
  },
  "id": 2
}