{
  "abi": [
    {
      "inputs": [
        {
          "internalType": "string",
          "name": "_name",
          "type": "string"
        },
        {
          "internalType": "string",
          "name": "_symbol",
          "type": "string"
        },
        {
          "internalType": "string",
          "name": "_baseURI",
          "type": "string"
        }
      ],
      "name": "init",
      "outputs": [],
      "stateMutability": "nonpayable",
      "type": "function"
    }
  ],
  "bytecode": {
    "object": "0x608060405234801561001057600080fd5b50610340806100206000396000f3fe608060405234801561001057600080fd5b506004361061002b5760003560e01c806341e461a014610030575b600080fd5b61004361003e366004610139565b610045565b005b7f99574a7094154bb123ae6ae102096f0bf9679b85a5cd1e727aaa0ae5f132e6b180610071858261024a565b5060018101610080848261024a565b506002810161008f838261024a565b5050505050565b634e487b7160e01b600052604160045260246000fd5b600082601f8301126100bd57600080fd5b813567ffffffffffffffff808211156100d8576100d8610096565b604051601f8301601f19908116603f0116810190828211818310171561010057610100610096565b8160405283815286602085880101111561011957600080fd5b836020870160208301376000602085830101528094505050505092915050565b60008060006060848603121561014e57600080fd5b833567ffffffffffffffff8082111561016657600080fd5b610172878388016100ac565b9450602086013591508082111561018857600080fd5b610194878388016100ac565b935060408601359150808211156101aa57600080fd5b506101b7868287016100ac565b9150509250925092565b600181811c908216806101d557607f821691505b6020821081036101f557634e487b7160e01b600052602260045260246000fd5b50919050565b601f82111561024557600081815260208120601f850160051c810160208610156102225750805b601f850160051c820191505b818110156102415782815560010161022e565b5050505b505050565b815167ffffffffffffffff81111561026457610264610096565b6102788161027284546101c1565b846101fb565b602080601f8311600181146102ad57600084156102955750858301515b600019600386901b1c1916600185901b178555610241565b600085815260208120601f198616915b828110156102dc578886015182559484019460019091019084016102bd565b50858210156102fa5787850151600019600388901b60f8161c191681555b5050505050600190811b0190555056fea26469706673582212207de495cd8918bfd6a33ddb689f27a8e984b2942dc53fb38807962080747864fd64736f6c63430008130033",
    "linkReferences": {}
  },
  "methodIdentifiers": {
    "init(string,string,string)": "41e461a0"
  },
  "id": 10
}