{
  "abi": [
    {
      "inputs": [
        {
          "internalType": "string",
          "name": "name",
          "type": "string"
        },
        {
          "internalType": "string",
          "name": "symbol",
          "type": "string"
        },
        {
          "internalType": "string",
          "name": "baseURI",
          "type": "string"
        }
      ],
      "stateMutability": "nonpayable",
      "type": "constructor"
    },
    {
      "inputs": [],
      "name": "AddressUtils__NotContract",
      "type": "error"
    },
    {
      "inputs": [],
      "name": "ERC165Base__InvalidInterfaceId",
      "type": "error"
    },
    {
      "inputs": [],
      "name": "ERC721Base__BalanceQueryZeroAddress",
      "type": "error"
    },
    {
      "inputs": [],
      "name": "ERC721Base__ERC721ReceiverNotImplemented",
      "type": "error"
    },
    {
      "inputs": [],
      "name": "ERC721Base__InvalidOwner",
      "type": "error"
    },
    {
      "inputs": [],
      "name": "ERC721Base__MintToZeroAddress",
      "type": "error"
    },
    {
      "inputs": [],
      "name": "ERC721Base__NonExistentToken",
      "type": "error"
    },
    {
      "inputs": [],
      "name": "ERC721Base__NotOwnerOrApproved",
      "type": "error"
    },
    {
      "inputs": [],
      "name": "ERC721Base__NotTokenOwner",
      "type": "error"
    },
    {
      "inputs": [],
      "name": "ERC721Base__SelfApproval",
      "type": "error"
    },
    {
      "inputs": [],
      "name": "ERC721Base__TokenAlreadyMinted",
      "type": "error"
    },
    {
      "inputs": [],
      "name": "ERC721Base__TransferToZeroAddress",
      "type": "error"
    },
    {
      "inputs": [],
      "name": "ERC721Metadata__NonExistentToken",
      "type": "error"
    },
    {
      "inputs": [],
      "name": "EnumerableMap__IndexOutOfBounds",
      "type": "error"
    },
    {
      "inputs": [],
      "name": "EnumerableMap__NonExistentKey",
      "type": "error"
    },
    {
      "inputs": [],
      "name": "EnumerableSet__IndexOutOfBounds",
      "type": "error"
    },
    {
      "inputs": [],
      "name": "SolidStateERC721__PayableApproveNotSupported",
      "type": "error"
    },
    {
      "inputs": [],
      "name": "SolidStateERC721__PayableTransferNotSupported",
      "type": "error"
    },
    {
      "anonymous": false,
      "inputs": [
        {
          "indexed": true,
          "internalType": "address",
          "name": "owner",
          "type": "address"
        },
        {
          "indexed": true,
          "internalType": "address",
          "name": "operator",
          "type": "address"
        },
        {
          "indexed": true,
          "internalType": "uint256",
          "name": "tokenId",
          "type": "uint256"
        }
      ],
      "name": "Approval",
      "type": "event"
    },
    {
      "anonymous": false,
      "inputs": [
        {
          "indexed": true,
          "internalType": "address",
          "name": "owner",
          "type": "address"
        },
        {
          "indexed": true,
          "internalType": "address",
          "name": "operator",
          "type": "address"
        },
        {
          "indexed": false,
          "internalType": "bool",
          "name": "approved",
          "type": "bool"
        }
      ],
      "name": "ApprovalForAll",
      "type": "event"
    },
    {
      "anonymous": false,
      "inputs": [
        {
          "indexed": true,
          "internalType": "address",
          "name": "from",
          "type": "address"
        },
        {
          "indexed": true,
          "internalType": "address",
          "name": "to",
          "type": "address"
        },
        {
          "indexed": true,
          "internalType": "uint256",
          "name": "tokenId",
          "type": "uint256"
        }
      ],
      "name": "Transfer",
      "type": "event"
    },
    {
      "inputs": [
        {
          "internalType": "address",
          "name": "operator",
          "type": "address"
        },
        {
          "internalType": "uint256",
          "name": "tokenId",
          "type": "uint256"
        }
      ],
      "name": "approve",
      "outputs": [],
      "stateMutability": "payable",
      "type": "function"
    },
    {
      "inputs": [
        {
          "internalType": "address",
          "name": "account",
          "type": "address"
        }
      ],
      "name": "balanceOf",
      "outputs": [
        {
          "internalType": "uint256",
          "name": "",
          "type": "uint256"
        }
      ],
      "stateMutability": "view",
      "type": "function"
    },
    {
      "inputs": [
        {
          "internalType": "uint256",
          "name": "tokenId",
          "type": "uint256"
        }
      ],
      "name": "burn",
      "outputs": [],
      "stateMutability": "nonpayable",
      "type": "function"
    },
    {
      "inputs": [
        {
          "internalType": "uint256",
          "name": "tokenId",
          "type": "uint256"
        }
      ],
      "name": "getApproved",
      "outputs": [
        {
          "internalType": "address",
          "name": "",
          "type": "address"
        }
      ],
      "stateMutability": "view",
      "type": "function"
    },
    {
      "inputs": [
        {
          "internalType": "address",
          "name": "account",
          "type": "address"
        },
        {
          "internalType": "address",
          "name": "operator",
          "type": "address"
        }
      ],
      "name": "isApprovedForAll",
      "outputs": [
        {
          "internalType": "bool",
          "name": "",
          "type": "bool"
        }
      ],
      "stateMutability": "view",
      "type": "function"
    },
    {
      "inputs": [
        {
          "internalType": "address",
          "name": "account",
          "type": "address"
        }
      ],
      "name": "mint",
      "outputs": [],
      "stateMutability": "nonpayable",
      "type": "function"
    },
    {
      "inputs": [],
      "name": "name",
      "outputs": [
        {
          "internalType": "string",
          "name": "",
          "type": "string"
        }
      ],
      "stateMutability": "view",
      "type": "function"
    },
    {
      "inputs": [
        {
          "internalType": "uint256",
          "name": "tokenId",
          "type": "uint256"
        }
      ],
      "name": "ownerOf",
      "outputs": [
        {
          "internalType": "address",
          "name": "",
          "type": "address"
        }
      ],
      "stateMutability": "view",
      "type": "function"
    },
    {
      "inputs": [
        {
          "internalType": "address",
          "name": "from",
          "type": "address"
        },
        {
          "internalType": "address",
          "name": "to",
          "type": "address"
        },
        {
          "internalType": "uint256",
          "name": "tokenId",
          "type": "uint256"
        }
      ],
      "name": "safeTransferFrom",
      "outputs": [],
      "stateMutability": "payable",
      "type": "function"
    },
    {
      "inputs": [
        {
          "internalType": "address",
          "name": "from",
          "type": "address"
        },
        {
          "internalType": "address",
          "name": "to",
          "type": "address"
        },
        {
          "internalType": "uint256",
          "name": "tokenId",
          "type": "uint256"
        },
        {
          "internalType": "bytes",
          "name": "data",
          "type": "bytes"
        }
      ],
      "name": "safeTransferFrom",
      "outputs": [],
      "stateMutability": "payable",
      "type": "function"
    },
    {
      "inputs": [
        {
          "internalType": "address",
          "name": "operator",
          "type": "address"
        },
        {
          "internalType": "bool",
          "name": "status",
          "type": "bool"
        }
      ],
      "name": "setApprovalForAll",
      "outputs": [],
      "stateMutability": "nonpayable",
      "type": "function"
    },
    {
      "inputs": [
        {
          "internalType": "bytes4",
          "name": "interfaceId",
          "type": "bytes4"
        }
      ],
      "name": "supportsInterface",
      "outputs": [
        {
          "internalType": "bool",
          "name": "",
          "type": "bool"
        }
      ],
      "stateMutability": "view",
      "type": "function"
    },
    {
      "inputs": [],
      "name": "symbol",
      "outputs": [
        {
          "internalType": "string",
          "name": "",
          "type": "string"
        }
      ],
      "stateMutability": "view",
      "type": "function"
    },
    {
      "inputs": [
        {
          "internalType": "uint256",
          "name": "index",
          "type": "uint256"
        }
      ],
      "name": "tokenByIndex",
      "outputs": [
        {
          "internalType": "uint256",
          "name": "",
          "type": "uint256"
        }
      ],
      "stateMutability": "view",
      "type": "function"
    },
    {
      "inputs": [
        {
          "internalType": "address",
          "name": "owner",
          "type": "address"
        },
        {
          "internalType": "uint256",
          "name": "index",
          "type": "uint256"
        }
      ],
      "name": "tokenOfOwnerByIndex",
      "outputs": [
        {
          "internalType": "uint256",
          "name": "",
          "type": "uint256"
        }
      ],
      "stateMutability": "view",
      "type": "function"
    },
    {
      "inputs": [
        {
          "internalType": "uint256",
          "name": "tokenId",
          "type": "uint256"
        }
      ],
      "name": "tokenURI",
      "outputs": [
        {
          "internalType": "string",
          "name": "",
          "type": "string"
        }
      ],
      "stateMutability": "view",
      "type": "function"
    },
    {
      "inputs": [],
      "name": "totalSupply",
      "outputs": [
        {
          "internalType": "uint256",
          "name": "",
          "type": "uint256"
        }
      ],
      "stateMutability": "view",
      "type": "function"
    },
    {
      "inputs": [
        {
          "internalType": "address",
          "name": "from",
          "type": "address"
        },
        {
          "internalType": "address",
          "name": "to",
          "type": "address"
        },
        {
          "internalType": "uint256",
          "name": "tokenId",
          "type": "uint256"
        }
      ],
      "name": "transferFrom",
      "outputs": [],
      "stateMutability": "payable",
      "type": "function"
    }
  ],
  "bytecode": {
    "object": "0x60806040523480156200001157600080fd5b5060405162002009380380620020098339810160408190526200003491620001f3565b7f99574a7094154bb123ae6ae102096f0bf9679b85a5cd1e727aaa0ae5f132e6b18062000062858262000313565b506001810162000073848262000313565b506002810162000084838262000313565b50620000996301ffc9a760e01b6001620000b7565b620000ad6380ac58cd60e01b6001620000b7565b50505050620003df565b6001600160e01b03198083169003620000e35760405163b0a19dd560e01b815260040160405180910390fd5b6001600160e01b03199190911660009081527ffc606c433378e3a7e0a6a531deac289b66caa1b4aa8554fd4ab2c6f1570f92d860205260409020805460ff1916911515919091179055565b634e487b7160e01b600052604160045260246000fd5b600082601f8301126200015657600080fd5b81516001600160401b03808211156200017357620001736200012e565b604051601f8301601f19908116603f011681019082821181831017156200019e576200019e6200012e565b81604052838152602092508683858801011115620001bb57600080fd5b600091505b83821015620001df5785820183015181830184015290820190620001c0565b600093810190920192909252949350505050565b6000806000606084860312156200020957600080fd5b83516001600160401b03808211156200022157600080fd5b6200022f8783880162000144565b945060208601519150808211156200024657600080fd5b620002548783880162000144565b935060408601519150808211156200026b57600080fd5b506200027a8682870162000144565b9150509250925092565b600181811c908216806200029957607f821691505b602082108103620002ba57634e487b7160e01b600052602260045260246000fd5b50919050565b601f8211156200030e57600081815260208120601f850160051c81016020861015620002e95750805b601f850160051c820191505b818110156200030a57828155600101620002f5565b5050505b505050565b81516001600160401b038111156200032f576200032f6200012e565b620003478162000340845462000284565b84620002c0565b602080601f8311600181146200037f5760008415620003665750858301515b600019600386901b1c1916600185901b1785556200030a565b600085815260208120601f198616915b82811015620003b0578886015182559484019460019091019084016200038f565b5085821015620003cf5787850151600019600388901b60f8161c191681555b5050505050600190811b01905550565b611c1a80620003ef6000396000f3fe6080604052600436106101095760003560e01c80634f6ccce71161009557806395d89b411161006457806395d89b41146102bb578063a22cb465146102d0578063b88d4fde146102f0578063c87b56dd14610303578063e985e9c51461032357600080fd5b80634f6ccce71461023b5780636352211e1461025b5780636a6278421461027b57806370a082311461029b57600080fd5b806318160ddd116100dc57806318160ddd146101b257806323b872dd146101d55780632f745c59146101e857806342842e0e1461020857806342966c681461021b57600080fd5b806301ffc9a71461010e57806306fdde0314610143578063081812fc14610165578063095ea7b31461019d575b600080fd5b34801561011a57600080fd5b5061012e61012936600461173d565b610343565b60405190151581526020015b60405180910390f35b34801561014f57600080fd5b50610158610386565b60405161013a91906117aa565b34801561017157600080fd5b506101856101803660046117bd565b610395565b6040516001600160a01b03909116815260200161013a565b6101b06101ab3660046117f2565b6103a0565b005b3480156101be57600080fd5b506101c76103ae565b60405190815260200161013a565b6101b06101e336600461181c565b6103b8565b3480156101f457600080fd5b506101c76102033660046117f2565b6103c8565b6101b061021636600461181c565b6103db565b34801561022757600080fd5b506101b06102363660046117bd565b6103e6565b34801561024757600080fd5b506101c76102563660046117bd565b6103f2565b34801561026757600080fd5b506101856102763660046117bd565b6103fd565b34801561028757600080fd5b506101b0610296366004611858565b610408565b3480156102a757600080fd5b506101c76102b6366004611858565b61042b565b3480156102c757600080fd5b50610158610436565b3480156102dc57600080fd5b506101b06102eb366004611873565b610440565b6101b06102fe3660046118c5565b61044a565b34801561030f57600080fd5b5061015861031e3660046117bd565b61045c565b34801561032f57600080fd5b5061012e61033e3660046119a1565b610467565b6001600160e01b0319811660009081527ffc606c433378e3a7e0a6a531deac289b66caa1b4aa8554fd4ab2c6f1570f92d8602052604081205460ff165b92915050565b6060610390610473565b905090565b600061038082610524565b6103aa8282610587565b5050565b600061039061068a565b6103c38383836106a3565b505050565b60006103d483836106e1565b9392505050565b6103c3838383610710565b6103ef8161072b565b50565b60006103808261081f565b600061038082610840565b61041481600054610884565b600080549080610423836119ea565b919050555050565b600061038082610967565b60606103906109be565b6103aa82826109ef565b61045684848484610aa3565b50505050565b606061038082610ae2565b60006103d48383610cd5565b60607f99574a7094154bb123ae6ae102096f0bf9679b85a5cd1e727aaa0ae5f132e6b180546104a190611a03565b80601f01602080910402602001604051908101604052809291908181526020018280546104cd90611a03565b801561051a5780601f106104ef5761010080835404028352916020019161051a565b820191906000526020600020905b8154815290600101906020018083116104fd57829003601f168201915b5050505050905090565b600061052f82610d22565b61054c5760405163c1b843ef60e01b815260040160405180910390fd5b5060009081527f3c7bf052874fa81625121783266a03507bd2cd48b16e571c01a04e8dd3fb07a960205260409020546001600160a01b031690565b610592828234610d3c565b600061059d82610840565b9050806001600160a01b0316836001600160a01b0316036105d15760405163424a22cb60e01b815260040160405180910390fd5b336001600160a01b038216148015906105f157506105ef8133610cd5565b155b1561060f57604051632f5de44f60e01b815260040160405180910390fd5b60008281527f3c7bf052874fa81625121783266a03507bd2cd48b16e571c01a04e8dd3fb07a9602052604080822080546001600160a01b0319166001600160a01b0387811691821790925591518593918516917f8c5be1e5ebec7d5bd14f71427d1e84f3dd0314c0f7b2291e5b200ac8c7c3b92591a4505050565b6000610390600080516020611bc5833981519152610d5b565b6106af83838334610d65565b6106b93382610d89565b6106d657604051632f5de44f60e01b815260040160405180910390fd5b6103c3838383610e0f565b6001600160a01b0382166000908152600080516020611ba5833981519152602052604081206103d49083610f8c565b6103c383838360405180602001604052806000815250610aa3565b600061073682610840565b905061074481600084610f98565b6001600160a01b0381166000908152600080516020611ba583398151915260205260409020600080516020611bc5833981519152906107839084610fa3565b5061078e8184610faf565b50600083815260038201602052604080822080546001600160a01b0319169055518491906001600160a01b038516907f8c5be1e5ebec7d5bd14f71427d1e84f3dd0314c0f7b2291e5b200ac8c7c3b925908390a460405183906000906001600160a01b038516907fddf252ad1be2c89b69c2b068fc378daa952ba7f163c4a11628f55a4df523b3ef908390a4505050565b6000610839600080516020611bc583398151915283610fbb565b5092915050565b60008061085b600080516020611bc583398151915284610fd7565b90506001600160a01b03811661038057604051637e1a7d8b60e01b815260040160405180910390fd5b6001600160a01b0382166108ab576040516311f2988d60e11b815260040160405180910390fd5b6108b481610d22565b156108d257604051630d86bb7b60e31b815260040160405180910390fd5b6108de60008383610f98565b6001600160a01b0382166000908152600080516020611ba583398151915260205260409020600080516020611bc58339815191529061091d9083610fe3565b50610929818385610fef565b5060405182906001600160a01b038516906000907fddf252ad1be2c89b69c2b068fc378daa952ba7f163c4a11628f55a4df523b3ef908290a4505050565b60006001600160a01b03821661099057604051630810ff9760e41b815260040160405180910390fd5b6001600160a01b0382166000908152600080516020611ba58339815191526020526040902061038090610d5b565b60607f99574a7094154bb123ae6ae102096f0bf9679b85a5cd1e727aaa0ae5f132e6b160010180546104a190611a03565b336001600160a01b03831603610a185760405163424a22cb60e01b815260040160405180910390fd5b3360008181527f3c7bf052874fa81625121783266a03507bd2cd48b16e571c01a04e8dd3fb07aa602090815260408083206001600160a01b03871680855290835292819020805460ff191686151590811790915590519081529192917f17307eab39ab6107e8899845ad3d59bd9653f200f220920489ca2b5937696c31910160405180910390a35050565b610aaf84848434610d65565b610ab93383610d89565b610ad657604051632f5de44f60e01b815260040160405180910390fd5b61045684848484611005565b6060610aed82610d22565b610b0957604051624705a760e71b815260040160405180910390fd5b60008281527f99574a7094154bb123ae6ae102096f0bf9679b85a5cd1e727aaa0ae5f132e6b46020526040812080547f99574a7094154bb123ae6ae102096f0bf9679b85a5cd1e727aaa0ae5f132e6b1929190610b6590611a03565b80601f0160208091040260200160405190810160405280929190818152602001828054610b9190611a03565b8015610bde5780601f10610bb357610100808354040283529160200191610bde565b820191906000526020600020905b815481529060010190602001808311610bc157829003601f168201915b505050505090506000826002018054610bf690611a03565b80601f0160208091040260200160405190810160405280929190818152602001828054610c2290611a03565b8015610c6f5780601f10610c4457610100808354040283529160200191610c6f565b820191906000526020600020905b815481529060010190602001808311610c5257829003601f168201915b505050505090508051600003610c8757509392505050565b815115610cba578082604051602001610ca1929190611a3d565b6040516020818303038152906040529350505050919050565b80610cc486611039565b604051602001610ca1929190611a3d565b6001600160a01b0391821660009081527f3c7bf052874fa81625121783266a03507bd2cd48b16e571c01a04e8dd3fb07aa6020908152604080832093909416825291909152205460ff1690565b6000610380600080516020611bc58339815191528361113a565b80156103c35760405163b56d7c1b60e01b815260040160405180910390fd5b6000610380825490565b8015610d84576040516322b1813960e01b815260040160405180910390fd5b610456565b6000610d9482610d22565b610db15760405163c1b843ef60e01b815260040160405180910390fd5b6000610dbc83610840565b9050806001600160a01b0316846001600160a01b03161480610df75750836001600160a01b0316610dec84610524565b6001600160a01b0316145b80610e075750610e078185610cd5565b949350505050565b6000610e1a82610840565b9050836001600160a01b0316816001600160a01b031614610e4e57604051630f2db4ad60e01b815260040160405180910390fd5b6001600160a01b038316610e75576040516340311a0960e01b815260040160405180910390fd5b610e80848484610f98565b6001600160a01b0384166000908152600080516020611ba583398151915260205260409020600080516020611bc583398151915290610ebf9084610fa3565b506001600160a01b03841660009081526002820160205260409020610ee49084610fe3565b50610ef0818486610fef565b50600083815260038201602052604080822080546001600160a01b0319169055518491906001600160a01b038516907f8c5be1e5ebec7d5bd14f71427d1e84f3dd0314c0f7b2291e5b200ac8c7c3b925908390a482846001600160a01b0316866001600160a01b03167fddf252ad1be2c89b69c2b068fc378daa952ba7f163c4a11628f55a4df523b3ef60405160405180910390a45050505050565b60006103d48383611152565b6103c383838361119e565b60006103d483836111a9565b60006103d48383611263565b6000808080610fca868661134b565b9097909650945050505050565b60006103d483836113ae565b60006103d48383611412565b6000610e0784846001600160a01b038516611455565b611010848484610e0f565b61101c848484846114f4565b61045657604051639ff10cdd60e01b815260040160405180910390fd5b6060816000036110605750506040805180820190915260018152600360fc1b602082015290565b8160005b811561108a5780611074816119ea565b91506110839050600a83611a82565b9150611064565b60008167ffffffffffffffff8111156110a5576110a56118af565b6040519080825280601f01601f1916602001820160405280156110cf576020820181803683370190505b5090505b8415610e07576110e4600183611a96565b91506110f1600a86611aa9565b6110fc906030611abd565b60f81b81838151811061111157611111611ad0565b60200101906001600160f81b031916908160001a905350611133600a86611a82565b94506110d3565b600081815260018301602052604081205415156103d4565b815460009082106111765760405163e637bf3b60e01b815260040160405180910390fd5b82600001828154811061118b5761118b611ad0565b9060005260206000200154905092915050565b6103c38383836115c5565b60008181526001830160205260408120548015610839578354600090859060001981019081106111db576111db611ad0565b906000526020600020015490508085600001600184038154811061120157611201611ad0565b600091825260208083209091019290925591825260018601905260409020819055835484908061123357611233611ae6565b60008281526020808220830160001990810183905590920190925593815260019485019093525050604081205590565b600081815260018301602052604081205480156113415783546000908590600019810190811061129557611295611ad0565b90600052602060002090600202019050808560000160018403815481106112be576112be611ad0565b600091825260208083208454600290930201918255600193840154918401919091559254815290860190915260409020819055835484908061130257611302611ae6565b60008281526020808220600260001990940193840201828155600190810183905592909355858152868201909252604082209190915591506103809050565b6000915050610380565b8154600090819083106113715760405163022fd82760e31b815260040160405180910390fd5b600084600001848154811061138857611388611ad0565b906000526020600020906002020190508060000154816001015492509250509250929050565b60008181526001830160205260408120548082036113df57604051633d547ec560e21b815260040160405180910390fd5b8360000160018203815481106113f7576113f7611ad0565b90600052602060002090600202016001015491505092915050565b6000818152600183016020526040812054610380575081546001808201845560008481526020808220909301849055845493815293810190915260409092205590565b60008281526001840160205260408120548082036114bc5750506040805180820182528381526020808201848152865460018181018955600089815284812095516002909302909501918255915190820155865486845281880190925292909120556103d4565b828560000160018303815481106114d5576114d5611ad0565b90600052602060002090600202016001018190555060009150506103d4565b60006001600160a01b0384163b61150d57506001610e07565b600061158e63150b7a0260e01b338887876040516024016115319493929190611afc565b604051602081830303815290604052906001600160e01b0319166020820180516001600160e01b038381831617835250505050604051806060016040528060328152602001611b73603291396001600160a01b0388169190611609565b90506000818060200190518101906115a69190611b39565b6001600160e01b031916630a85bd0160e11b1492505050949350505050565b6001600160a01b0382166103c35760008181527f99574a7094154bb123ae6ae102096f0bf9679b85a5cd1e727aaa0ae5f132e6b4602052604081206103c3916116d9565b6060610e0784846000856060843b61163457604051632270d6bf60e21b815260040160405180910390fd5b600080866001600160a01b031685876040516116509190611b56565b60006040518083038185875af1925050503d806000811461168d576040519150601f19603f3d011682016040523d82523d6000602084013e611692565b606091505b509150915081156116a6579150610e079050565b8051156116b65780518082602001fd5b8360405162461bcd60e51b81526004016116d091906117aa565b60405180910390fd5b5080546116e590611a03565b6000825580601f106116f5575050565b601f0160209004906000526020600020908101906103ef91905b80821115611723576000815560010161170f565b5090565b6001600160e01b0319811681146103ef57600080fd5b60006020828403121561174f57600080fd5b81356103d481611727565b60005b8381101561177557818101518382015260200161175d565b50506000910152565b6000815180845261179681602086016020860161175a565b601f01601f19169290920160200192915050565b6020815260006103d4602083018461177e565b6000602082840312156117cf57600080fd5b5035919050565b80356001600160a01b03811681146117ed57600080fd5b919050565b6000806040838503121561180557600080fd5b61180e836117d6565b946020939093013593505050565b60008060006060848603121561183157600080fd5b61183a846117d6565b9250611848602085016117d6565b9150604084013590509250925092565b60006020828403121561186a57600080fd5b6103d4826117d6565b6000806040838503121561188657600080fd5b61188f836117d6565b9150602083013580151581146118a457600080fd5b809150509250929050565b634e487b7160e01b600052604160045260246000fd5b600080600080608085870312156118db57600080fd5b6118e4856117d6565b93506118f2602086016117d6565b925060408501359150606085013567ffffffffffffffff8082111561191657600080fd5b818701915087601f83011261192a57600080fd5b81358181111561193c5761193c6118af565b604051601f8201601f19908116603f01168101908382118183101715611964576119646118af565b816040528281528a602084870101111561197d57600080fd5b82602086016020830137600060208483010152809550505050505092959194509250565b600080604083850312156119b457600080fd5b6119bd836117d6565b91506119cb602084016117d6565b90509250929050565b634e487b7160e01b600052601160045260246000fd5b6000600182016119fc576119fc6119d4565b5060010190565b600181811c90821680611a1757607f821691505b602082108103611a3757634e487b7160e01b600052602260045260246000fd5b50919050565b60008351611a4f81846020880161175a565b835190830190611a6381836020880161175a565b01949350505050565b634e487b7160e01b600052601260045260246000fd5b600082611a9157611a91611a6c565b500490565b81810381811115610380576103806119d4565b600082611ab857611ab8611a6c565b500690565b80820180821115610380576103806119d4565b634e487b7160e01b600052603260045260246000fd5b634e487b7160e01b600052603160045260246000fd5b6001600160a01b0385811682528416602082015260408101839052608060608201819052600090611b2f9083018461177e565b9695505050505050565b600060208284031215611b4b57600080fd5b81516103d481611727565b60008251611b6881846020870161175a565b919091019291505056fe4552433732313a207472616e7366657220746f206e6f6e20455243373231526563656976657220696d706c656d656e7465723c7bf052874fa81625121783266a03507bd2cd48b16e571c01a04e8dd3fb07a83c7bf052874fa81625121783266a03507bd2cd48b16e571c01a04e8dd3fb07a6a2646970667358221220a784dea02307cb9e6588c2b9beab898d8fcb2e6f12b9fe5c9a4ff4f1e49040b264736f6c63430008130033",
    "linkReferences": {}
  },
  "methodIdentifiers": {
    "approve(address,uint256)": "095ea7b3",
    "balanceOf(address)": "70a08231",
    "burn(uint256)": "42966c68",
    "getApproved(uint256)": "081812fc",
    "isApprovedForAll(address,address)": "e985e9c5",
    "mint(address)": "6a627842",
    "name()": "06fdde03",
    "ownerOf(uint256)": "6352211e",
    "safeTransferFrom(address,address,uint256)": "42842e0e",
    "safeTransferFrom(address,address,uint256,bytes)": "b88d4fde",
    "setApprovalForAll(address,bool)": "a22cb465",
    "supportsInterface(bytes4)": "01ffc9a7",
    "symbol()": "95d89b41",
    "tokenByIndex(uint256)": "4f6ccce7",
    "tokenOfOwnerByIndex(address,uint256)": "2f745c59",
    "tokenURI(uint256)": "c87b56dd",
    "totalSupply()": "18160ddd",
    "transferFrom(address,address,uint256)": "23b872dd"
  },
  "id": 7
}