{
  "abi": [
    {
      "inputs": [
        {
          "internalType": "address",
          "name": "_outbox",
          "type": "address"
        }
      ],
      "stateMutability": "nonpayable",
      "type": "constructor"
    },
    {
      "anonymous": false,
      "inputs": [
        {
          "indexed": true,
          "internalType": "address",
          "name": "previousOwner",
          "type": "address"
        },
        {
          "indexed": true,
          "internalType": "address",
          "name": "newOwner",
          "type": "address"
        }
      ],
      "name": "OwnershipTransferred",
      "type": "event"
    },
    {
      "anonymous": false,
      "inputs": [
        {
          "indexed": false,
          "internalType": "uint32",
          "name": "destinationDomain",
          "type": "uint32"
        },
        {
          "indexed": false,
          "internalType": "bytes32",
          "name": "recipient",
          "type": "bytes32"
        },
        {
          "indexed": false,
          "internalType": "string",
          "name": "message",
          "type": "string"
        }
      ],
      "name": "SentMessage",
      "type": "event"
    },
    {
      "inputs": [],
      "name": "owner",
      "outputs": [
        {
          "internalType": "address",
          "name": "",
          "type": "address"
        }
      ],
      "stateMutability": "view",
      "type": "function"
    },
    {
      "inputs": [
        {
          "internalType": "uint32",
          "name": "_destinationDomain",
          "type": "uint32"
        },
        {
          "internalType": "address",
          "name": "_nftAddress",
          "type": "address"
        },
        {
          "internalType": "uint256",
          "name": "_tokenId",
          "type": "uint256"
        }
      ],
      "name": "portNft",
      "outputs": [],
      "stateMutability": "payable",
      "type": "function"
    },
    {
      "inputs": [
        {
          "internalType": "uint32",
          "name": "_destinationDomain",
          "type": "uint32"
        },
        {
          "internalType": "address",
          "name": "_nftAddress",
          "type": "address"
        },
        {
          "internalType": "uint256",
          "name": "_tokenId",
          "type": "uint256"
        },
        {
          "internalType": "address",
          "name": "_receiveAddr",
          "type": "address"
        }
      ],
      "name": "portNftTest",
      "outputs": [],
      "stateMutability": "payable",
      "type": "function"
    },
    {
      "inputs": [
        {
          "internalType": "uint32",
          "name": "_destinationDomain",
          "type": "uint32"
        },
        {
          "internalType": "uint256",
          "name": "_gasAmount",
          "type": "uint256"
        }
      ],
      "name": "quoteGasPayment",
      "outputs": [
        {
          "internalType": "uint256",
          "name": "",
          "type": "uint256"
        }
      ],
      "stateMutability": "view",
      "type": "function"
    },
    {
      "inputs": [],
      "name": "renounceOwnership",
      "outputs": [],
      "stateMutability": "nonpayable",
      "type": "function"
    },
    {
      "inputs": [
        {
          "internalType": "uint256",
          "name": "_gasAmount",
          "type": "uint256"
        }
      ],
      "name": "setGasAmount",
      "outputs": [],
      "stateMutability": "nonpayable",
      "type": "function"
    },
    {
      "inputs": [
        {
          "internalType": "address",
          "name": "_igp",
          "type": "address"
        }
      ],
      "name": "setIgp",
      "outputs": [],
      "stateMutability": "nonpayable",
      "type": "function"
    },
    {
      "inputs": [
        {
          "internalType": "bytes32",
          "name": "_addr",
          "type": "bytes32"
        }
      ],
      "name": "setMailboxRecepient",
      "outputs": [],
      "stateMutability": "nonpayable",
      "type": "function"
    },
    {
      "inputs": [
        {
          "internalType": "address",
          "name": "_outbox",
          "type": "address"
        }
      ],
      "name": "setOutbox",
      "outputs": [],
      "stateMutability": "nonpayable",
      "type": "function"
    },
    {
      "inputs": [
        {
          "internalType": "address",
          "name": "newOwner",
          "type": "address"
        }
      ],
      "name": "transferOwnership",
      "outputs": [],
      "stateMutability": "nonpayable",
      "type": "function"
    }
  ],
  "bytecode": {
    "object": "0x6080604052600380546001600160a01b03191673f90cb82a76492614d07b82a7658917f3ac811ac117905561c35060045534801561003c57600080fd5b50604051610b92380380610b9283398101604081905261005b9161014d565b61006433610073565b61006d816100c3565b5061017d565b600080546001600160a01b038381166001600160a01b0319831681178455604051919092169283917f8be0079c531659141344cd1fd0a4f28419497f9722a3daafe3b4186f6b6457e09190a35050565b6100cb6100ed565b600180546001600160a01b0319166001600160a01b0392909216919091179055565b6000546001600160a01b0316331461014b5760405162461bcd60e51b815260206004820181905260248201527f4f776e61626c653a2063616c6c6572206973206e6f7420746865206f776e6572604482015260640160405180910390fd5b565b60006020828403121561015f57600080fd5b81516001600160a01b038116811461017657600080fd5b9392505050565b610a068061018c6000396000f3fe6080604052600436106100915760003560e01c8063715018a611610059578063715018a61461011e5780638da5cb5b14610133578063a692979314610160578063f2fde38b1461018e578063ff204f3b146101ae57600080fd5b80630c8f78fb14610096578063168e1464146100b85780633152d807146100cb578063435ec7de146100eb57806364ca27ac1461010b575b600080fd5b3480156100a257600080fd5b506100b66100b1366004610791565b6101ce565b005b6100b66100c63660046107d8565b6101db565b3480156100d757600080fd5b506100b66100e6366004610829565b610354565b3480156100f757600080fd5b506100b6610106366004610791565b61037e565b6100b6610119366004610846565b61038b565b34801561012a57600080fd5b506100b661047b565b34801561013f57600080fd5b506000546040516001600160a01b0390911681526020015b60405180910390f35b34801561016c57600080fd5b5061018061017b366004610885565b61048f565b604051908152602001610157565b34801561019a57600080fd5b506100b66101a9366004610829565b610510565b3480156101ba57600080fd5b506100b66101c9366004610829565b610589565b6101d66105b3565b600455565b6101e36105b3565b600034116101f057600080fd5b6040516331a9108f60e11b81526004810183905233906001600160a01b03851690636352211e90602401602060405180830381865afa158015610237573d6000803e3d6000fd5b505050506040513d601f19601f8201168201806040525081019061025b91906108af565b6001600160a01b03161461028a5760405162461bcd60e51b8152600401610281906108cc565b60405180910390fd5b604080513360208201526001600160a01b038516918101919091526060810183905260009060800160408051601f198184030181528282523060208401529250600091016040516020818303038152906040526102e69061091c565b6040516356d5d47560e01b81529091506001600160a01b038416906356d5d4759061031a9060009085908790600401610989565b600060405180830381600087803b15801561033457600080fd5b505af1158015610348573d6000803e3d6000fd5b50505050505050505050565b61035c6105b3565b600380546001600160a01b0319166001600160a01b0392909216919091179055565b6103866105b3565b600255565b6103978360045461048f565b3410156103a357600080fd5b6040516331a9108f60e11b81526004810182905233906001600160a01b03841690636352211e90602401602060405180830381865afa1580156103ea573d6000803e3d6000fd5b505050506040513d601f19601f8201168201806040525081019061040e91906108af565b6001600160a01b0316146104345760405162461bcd60e51b8152600401610281906108cc565b604080513360208201526001600160a01b0384168183015260608082018490528251808303909101815260809091019091526002546104759085908361060d565b50505050565b6104836105b3565b61048d6000610741565b565b60035460405163a692979360e01b815263ffffffff84166004820152602481018390526000916001600160a01b03169063a692979390604401602060405180830381865afa1580156104e5573d6000803e3d6000fd5b505050506040513d601f19601f8201168201806040525081019061050991906109b7565b9392505050565b6105186105b3565b6001600160a01b03811661057d5760405162461bcd60e51b815260206004820152602660248201527f4f776e61626c653a206e6577206f776e657220697320746865207a65726f206160448201526564647265737360d01b6064820152608401610281565b61058681610741565b50565b6105916105b3565b600180546001600160a01b0319166001600160a01b0392909216919091179055565b6000546001600160a01b0316331461048d5760405162461bcd60e51b815260206004820181905260248201527f4f776e61626c653a2063616c6c6572206973206e6f7420746865206f776e65726044820152606401610281565b60015460405163fa31de0160e01b81526000916001600160a01b03169063fa31de019061064290879087908790600401610989565b6020604051808303816000875af1158015610661573d6000803e3d6000fd5b505050506040513d601f19601f8201168201806040525081019061068591906109b7565b600354604051630237e58360e31b81526004810183905263ffffffff8716602482015261c35060448201523360648201529192506001600160a01b0316906311bf2c189034906084016000604051808303818588803b1580156106e757600080fd5b505af11580156106fb573d6000803e3d6000fd5b50505050507f10875372a03b7e5c7d46deb548b112c09c576e378c8f2daa3370a5cbe58c41b684848460405161073393929190610989565b60405180910390a150505050565b600080546001600160a01b038381166001600160a01b0319831681178455604051919092169283917f8be0079c531659141344cd1fd0a4f28419497f9722a3daafe3b4186f6b6457e09190a35050565b6000602082840312156107a357600080fd5b5035919050565b803563ffffffff811681146107be57600080fd5b919050565b6001600160a01b038116811461058657600080fd5b600080600080608085870312156107ee57600080fd5b6107f7856107aa565b93506020850135610807816107c3565b925060408501359150606085013561081e816107c3565b939692955090935050565b60006020828403121561083b57600080fd5b8135610509816107c3565b60008060006060848603121561085b57600080fd5b610864846107aa565b92506020840135610874816107c3565b929592945050506040919091013590565b6000806040838503121561089857600080fd5b6108a1836107aa565b946020939093013593505050565b6000602082840312156108c157600080fd5b8151610509816107c3565b60208082526030908201527f4e66745265616465723a204d657373616765206e6565647320746f206265206660408201526f1c9bdb481bdddb995c881bd98813919560821b606082015260800190565b8051602080830151919081101561093d576000198160200360031b1b821691505b50919050565b6000815180845260005b818110156109695760208185018101518683018201520161094d565b506000602082860101526020601f19601f83011685010191505092915050565b63ffffffff841681528260208201526060604082015260006109ae6060830184610943565b95945050505050565b6000602082840312156109c957600080fd5b505191905056fea2646970667358221220d1c736f2720da1c2325b63a70e5e1b9dd1edd92bf54be38c4e02dab3b507c40764736f6c63430008130033",
    "linkReferences": {}
  },
  "methodIdentifiers": {
    "owner()": "8da5cb5b",
    "portNft(uint32,address,uint256)": "64ca27ac",
    "portNftTest(uint32,address,uint256,address)": "168e1464",
    "quoteGasPayment(uint32,uint256)": "a6929793",
    "renounceOwnership()": "715018a6",
    "setGasAmount(uint256)": "0c8f78fb",
    "setIgp(address)": "3152d807",
    "setMailboxRecepient(bytes32)": "435ec7de",
    "setOutbox(address)": "ff204f3b",
    "transferOwnership(address)": "f2fde38b"
  },
  "id": 8
}