{
  "abi": [
    {
      "inputs": [],
      "name": "AddressUtils__NotContract",
      "type": "error"
    },
    {
      "inputs": [],
      "name": "ERC165Base__InvalidInterfaceId",
      "type": "error"
    },
    {
      "inputs": [],
      "name": "ERC721Base__BalanceQueryZeroAddress",
      "type": "error"
    },
    {
      "inputs": [],
      "name": "ERC721Base__ERC721ReceiverNotImplemented",
      "type": "error"
    },
    {
      "inputs": [],
      "name": "ERC721Base__InvalidOwner",
      "type": "error"
    },
    {
      "inputs": [],
      "name": "ERC721Base__MintToZeroAddress",
      "type": "error"
    },
    {
      "inputs": [],
      "name": "ERC721Base__NonExistentToken",
      "type": "error"
    },
    {
      "inputs": [],
      "name": "ERC721Base__NotOwnerOrApproved",
      "type": "error"
    },
    {
      "inputs": [],
      "name": "ERC721Base__NotTokenOwner",
      "type": "error"
    },
    {
      "inputs": [],
      "name": "ERC721Base__SelfApproval",
      "type": "error"
    },
    {
      "inputs": [],
      "name": "ERC721Base__TokenAlreadyMinted",
      "type": "error"
    },
    {
      "inputs": [],
      "name": "ERC721Base__TransferToZeroAddress",
      "type": "error"
    },
    {
      "inputs": [],
      "name": "ERC721Metadata__NonExistentToken",
      "type": "error"
    },
    {
      "inputs": [],
      "name": "EnumerableMap__IndexOutOfBounds",
      "type": "error"
    },
    {
      "inputs": [],
      "name": "EnumerableMap__NonExistentKey",
      "type": "error"
    },
    {
      "inputs": [],
      "name": "EnumerableSet__IndexOutOfBounds",
      "type": "error"
    },
    {
      "inputs": [],
      "name": "Ownable__NotOwner",
      "type": "error"
    },
    {
      "inputs": [],
      "name": "Ownable__NotTransitiveOwner",
      "type": "error"
    },
    {
      "inputs": [],
      "name": "SolidStateERC721__PayableApproveNotSupported",
      "type": "error"
    },
    {
      "inputs": [],
      "name": "SolidStateERC721__PayableTransferNotSupported",
      "type": "error"
    },
    {
      "anonymous": false,
      "inputs": [
        {
          "indexed": true,
          "internalType": "address",
          "name": "owner",
          "type": "address"
        },
        {
          "indexed": true,
          "internalType": "address",
          "name": "operator",
          "type": "address"
        },
        {
          "indexed": true,
          "internalType": "uint256",
          "name": "tokenId",
          "type": "uint256"
        }
      ],
      "name": "Approval",
      "type": "event"
    },
    {
      "anonymous": false,
      "inputs": [
        {
          "indexed": true,
          "internalType": "address",
          "name": "owner",
          "type": "address"
        },
        {
          "indexed": true,
          "internalType": "address",
          "name": "operator",
          "type": "address"
        },
        {
          "indexed": false,
          "internalType": "bool",
          "name": "approved",
          "type": "bool"
        }
      ],
      "name": "ApprovalForAll",
      "type": "event"
    },
    {
      "anonymous": false,
      "inputs": [
        {
          "indexed": true,
          "internalType": "address",
          "name": "previousOwner",
          "type": "address"
        },
        {
          "indexed": true,
          "internalType": "address",
          "name": "newOwner",
          "type": "address"
        }
      ],
      "name": "OwnershipTransferred",
      "type": "event"
    },
    {
      "anonymous": false,
      "inputs": [
        {
          "indexed": false,
          "internalType": "uint32",
          "name": "origin",
          "type": "uint32"
        },
        {
          "indexed": false,
          "internalType": "bytes32",
          "name": "sender",
          "type": "bytes32"
        },
        {
          "indexed": false,
          "internalType": "bytes",
          "name": "message",
          "type": "bytes"
        }
      ],
      "name": "ReceivedMessage",
      "type": "event"
    },
    {
      "anonymous": false,
      "inputs": [
        {
          "indexed": false,
          "internalType": "uint256",
          "name": "_tokenId",
          "type": "uint256"
        },
        {
          "indexed": false,
          "internalType": "bool",
          "name": "_switch",
          "type": "bool"
        }
      ],
      "name": "SwitchUnbound",
      "type": "event"
    },
    {
      "anonymous": false,
      "inputs": [
        {
          "indexed": true,
          "internalType": "address",
          "name": "from",
          "type": "address"
        },
        {
          "indexed": true,
          "internalType": "address",
          "name": "to",
          "type": "address"
        },
        {
          "indexed": true,
          "internalType": "uint256",
          "name": "tokenId",
          "type": "uint256"
        }
      ],
      "name": "Transfer",
      "type": "event"
    },
    {
      "inputs": [
        {
          "internalType": "address",
          "name": "operator",
          "type": "address"
        },
        {
          "internalType": "uint256",
          "name": "tokenId",
          "type": "uint256"
        }
      ],
      "name": "approve",
      "outputs": [],
      "stateMutability": "payable",
      "type": "function"
    },
    {
      "inputs": [
        {
          "internalType": "address",
          "name": "account",
          "type": "address"
        }
      ],
      "name": "balanceOf",
      "outputs": [
        {
          "internalType": "uint256",
          "name": "",
          "type": "uint256"
        }
      ],
      "stateMutability": "view",
      "type": "function"
    },
    {
      "inputs": [
        {
          "internalType": "uint256",
          "name": "tokenId",
          "type": "uint256"
        }
      ],
      "name": "getApproved",
      "outputs": [
        {
          "internalType": "address",
          "name": "",
          "type": "address"
        }
      ],
      "stateMutability": "view",
      "type": "function"
    },
    {
      "inputs": [
        {
          "internalType": "uint32",
          "name": "_origin",
          "type": "uint32"
        },
        {
          "internalType": "bytes32",
          "name": "_sender",
          "type": "bytes32"
        },
        {
          "internalType": "bytes",
          "name": "_message",
          "type": "bytes"
        }
      ],
      "name": "handle",
      "outputs": [],
      "stateMutability": "nonpayable",
      "type": "function"
    },
    {
      "inputs": [
        {
          "internalType": "address",
          "name": "account",
          "type": "address"
        },
        {
          "internalType": "address",
          "name": "operator",
          "type": "address"
        }
      ],
      "name": "isApprovedForAll",
      "outputs": [
        {
          "internalType": "bool",
          "name": "",
          "type": "bool"
        }
      ],
      "stateMutability": "view",
      "type": "function"
    },
    {
      "inputs": [],
      "name": "name",
      "outputs": [
        {
          "internalType": "string",
          "name": "",
          "type": "string"
        }
      ],
      "stateMutability": "view",
      "type": "function"
    },
    {
      "inputs": [
        {
          "internalType": "uint256",
          "name": "tokenId",
          "type": "uint256"
        }
      ],
      "name": "ownerOf",
      "outputs": [
        {
          "internalType": "address",
          "name": "",
          "type": "address"
        }
      ],
      "stateMutability": "view",
      "type": "function"
    },
    {
      "inputs": [
        {
          "internalType": "address",
          "name": "from",
          "type": "address"
        },
        {
          "internalType": "address",
          "name": "to",
          "type": "address"
        },
        {
          "internalType": "uint256",
          "name": "tokenId",
          "type": "uint256"
        }
      ],
      "name": "safeTransferFrom",
      "outputs": [],
      "stateMutability": "payable",
      "type": "function"
    },
    {
      "inputs": [
        {
          "internalType": "address",
          "name": "from",
          "type": "address"
        },
        {
          "internalType": "address",
          "name": "to",
          "type": "address"
        },
        {
          "internalType": "uint256",
          "name": "tokenId",
          "type": "uint256"
        },
        {
          "internalType": "bytes",
          "name": "data",
          "type": "bytes"
        }
      ],
      "name": "safeTransferFrom",
      "outputs": [],
      "stateMutability": "payable",
      "type": "function"
    },
    {
      "inputs": [
        {
          "internalType": "address",
          "name": "operator",
          "type": "address"
        },
        {
          "internalType": "bool",
          "name": "status",
          "type": "bool"
        }
      ],
      "name": "setApprovalForAll",
      "outputs": [],
      "stateMutability": "nonpayable",
      "type": "function"
    },
    {
      "inputs": [
        {
          "internalType": "bytes32",
          "name": "_addr",
          "type": "bytes32"
        }
      ],
      "name": "setApprovedMessenger",
      "outputs": [],
      "stateMutability": "nonpayable",
      "type": "function"
    },
    {
      "inputs": [
        {
          "internalType": "bytes4",
          "name": "interfaceId",
          "type": "bytes4"
        }
      ],
      "name": "supportsInterface",
      "outputs": [
        {
          "internalType": "bool",
          "name": "",
          "type": "bool"
        }
      ],
      "stateMutability": "view",
      "type": "function"
    },
    {
      "inputs": [
        {
          "internalType": "uint256",
          "name": "_tokenId",
          "type": "uint256"
        }
      ],
      "name": "switchUnbound",
      "outputs": [],
      "stateMutability": "nonpayable",
      "type": "function"
    },
    {
      "inputs": [],
      "name": "symbol",
      "outputs": [
        {
          "internalType": "string",
          "name": "",
          "type": "string"
        }
      ],
      "stateMutability": "view",
      "type": "function"
    },
    {
      "inputs": [
        {
          "internalType": "uint256",
          "name": "index",
          "type": "uint256"
        }
      ],
      "name": "tokenByIndex",
      "outputs": [
        {
          "internalType": "uint256",
          "name": "",
          "type": "uint256"
        }
      ],
      "stateMutability": "view",
      "type": "function"
    },
    {
      "inputs": [
        {
          "internalType": "address",
          "name": "owner",
          "type": "address"
        },
        {
          "internalType": "uint256",
          "name": "index",
          "type": "uint256"
        }
      ],
      "name": "tokenOfOwnerByIndex",
      "outputs": [
        {
          "internalType": "uint256",
          "name": "",
          "type": "uint256"
        }
      ],
      "stateMutability": "view",
      "type": "function"
    },
    {
      "inputs": [
        {
          "internalType": "uint256",
          "name": "tokenId",
          "type": "uint256"
        }
      ],
      "name": "tokenURI",
      "outputs": [
        {
          "internalType": "string",
          "name": "",
          "type": "string"
        }
      ],
      "stateMutability": "view",
      "type": "function"
    },
    {
      "inputs": [],
      "name": "totalSupply",
      "outputs": [
        {
          "internalType": "uint256",
          "name": "",
          "type": "uint256"
        }
      ],
      "stateMutability": "view",
      "type": "function"
    },
    {
      "inputs": [
        {
          "internalType": "address",
          "name": "from",
          "type": "address"
        },
        {
          "internalType": "address",
          "name": "to",
          "type": "address"
        },
        {
          "internalType": "uint256",
          "name": "tokenId",
          "type": "uint256"
        }
      ],
      "name": "transferFrom",
      "outputs": [],
      "stateMutability": "payable",
      "type": "function"
    }
  ],
  "bytecode": {
    "object": "0x608060405234801561001057600080fd5b50611e2a806100206000396000f3fe6080604052600436106101145760003560e01c806356d5d475116100a0578063a4b7d16211610064578063a4b7d162146102db578063b88d4fde146102fb578063c762dc0a1461030e578063c87b56dd1461032e578063e985e9c51461034e57600080fd5b806356d5d475146102465780636352211e1461026657806370a082311461028657806395d89b41146102a6578063a22cb465146102bb57600080fd5b806318160ddd116100e757806318160ddd146101bd57806323b872dd146101e05780632f745c59146101f357806342842e0e146102135780634f6ccce71461022657600080fd5b806301ffc9a71461011957806306fdde031461014e578063081812fc14610170578063095ea7b3146101a8575b600080fd5b34801561012557600080fd5b50610139610134366004611875565b61036e565b60405190151581526020015b60405180910390f35b34801561015a57600080fd5b506101636103b1565b60405161014591906118e2565b34801561017c57600080fd5b5061019061018b3660046118f5565b6103c0565b6040516001600160a01b039091168152602001610145565b6101bb6101b6366004611923565b6103cb565b005b3480156101c957600080fd5b506101d26103d9565b604051908152602001610145565b6101bb6101ee36600461194f565b6103e3565b3480156101ff57600080fd5b506101d261020e366004611923565b6103f3565b6101bb61022136600461194f565b610406565b34801561023257600080fd5b506101d26102413660046118f5565b610411565b34801561025257600080fd5b506101bb610261366004611990565b61041c565b34801561027257600080fd5b506101906102813660046118f5565b610583565b34801561029257600080fd5b506101d26102a1366004611a22565b61058e565b3480156102b257600080fd5b50610163610599565b3480156102c757600080fd5b506101bb6102d6366004611a3f565b6105a3565b3480156102e757600080fd5b506101bb6102f63660046118f5565b6105ad565b6101bb610309366004611a93565b6105fc565b34801561031a57600080fd5b506101bb6103293660046118f5565b61060e565b34801561033a57600080fd5b506101636103493660046118f5565b610666565b34801561035a57600080fd5b50610139610369366004611b73565b610671565b6001600160e01b0319811660009081527ffc606c433378e3a7e0a6a531deac289b66caa1b4aa8554fd4ab2c6f1570f92d8602052604081205460ff165b92915050565b60606103bb61067d565b905090565b60006103ab8261072e565b6103d58282610791565b5050565b60006103bb610894565b6103ee8383836108ad565b505050565b60006103ff83836108eb565b9392505050565b6103ee83838361091a565b60006103ab82610935565b60035483146104825760405162461bcd60e51b815260206004820152602760248201527f50726f7879536274466163746f72793a204e6f7420617070726f766564206d6560448201526639b9b2b733b2b960c91b60648201526084015b60405180910390fd5b600080806104928486018661194f565b60085492955090935091506104a78482610956565b604080516060810182526001600160a01b0385811682526020808301868152600084860181815287825260048452868220955186546001600160a01b0319169516949094178555905160018086019190915592516002948501805460ff19169115159190911790556007825284812060055461ffff1682526003019091529290922042910155610538908290611bb7565b6008556040517fc9f92737086b645b21611169d04fa8cc1b05a453ea6a9befbf3930d619e23bec90610571908a908a908a908a90611bca565b60405180910390a15050505050505050565b60006103ab82610a39565b60006103ab82610a7d565b60606103bb610ad4565b6103d58282610b05565b7f8a22373512790c48b83a1fe2efdd2888d4a917bcdc24d0adf63e60f671680460546001600160a01b031633146105f757604051632f7a8ee160e01b815260040160405180910390fd5b600355565b61060884848484610bb9565b50505050565b7f8a22373512790c48b83a1fe2efdd2888d4a917bcdc24d0adf63e60f671680460546001600160a01b0316331461065857604051632f7a8ee160e01b815260040160405180910390fd5b610663816001610bf8565b50565b60606103ab82610c54565b60006103ff8383610e47565b60607f99574a7094154bb123ae6ae102096f0bf9679b85a5cd1e727aaa0ae5f132e6b180546106ab90611c0d565b80601f01602080910402602001604051908101604052809291908181526020018280546106d790611c0d565b80156107245780601f106106f957610100808354040283529160200191610724565b820191906000526020600020905b81548152906001019060200180831161070757829003601f168201915b5050505050905090565b600061073982610e94565b6107565760405163c1b843ef60e01b815260040160405180910390fd5b5060009081527f3c7bf052874fa81625121783266a03507bd2cd48b16e571c01a04e8dd3fb07a960205260409020546001600160a01b031690565b61079c828234610eae565b60006107a782610a39565b9050806001600160a01b0316836001600160a01b0316036107db5760405163424a22cb60e01b815260040160405180910390fd5b336001600160a01b038216148015906107fb57506107f98133610e47565b155b1561081957604051632f5de44f60e01b815260040160405180910390fd5b60008281527f3c7bf052874fa81625121783266a03507bd2cd48b16e571c01a04e8dd3fb07a9602052604080822080546001600160a01b0319166001600160a01b0387811691821790925591518593918516917f8c5be1e5ebec7d5bd14f71427d1e84f3dd0314c0f7b2291e5b200ac8c7c3b92591a4505050565b60006103bb600080516020611dd5833981519152610ecd565b6108b983838334610ed7565b6108c33382610efb565b6108e057604051632f5de44f60e01b815260040160405180910390fd5b6103ee838383610f81565b6001600160a01b0382166000908152600080516020611db5833981519152602052604081206103ff90836110fe565b6103ee83838360405180602001604052806000815250610bb9565b600061094f600080516020611dd58339815191528361110a565b5092915050565b6001600160a01b03821661097d576040516311f2988d60e11b815260040160405180910390fd5b61098681610e94565b156109a457604051630d86bb7b60e31b815260040160405180910390fd5b6109b060008383611126565b6001600160a01b0382166000908152600080516020611db583398151915260205260409020600080516020611dd5833981519152906109ef90836111e4565b506109fb8183856111f0565b5060405182906001600160a01b038516906000907fddf252ad1be2c89b69c2b068fc378daa952ba7f163c4a11628f55a4df523b3ef908290a4505050565b600080610a54600080516020611dd583398151915284611206565b90506001600160a01b0381166103ab57604051637e1a7d8b60e01b815260040160405180910390fd5b60006001600160a01b038216610aa657604051630810ff9760e41b815260040160405180910390fd5b6001600160a01b0382166000908152600080516020611db5833981519152602052604090206103ab90610ecd565b60607f99574a7094154bb123ae6ae102096f0bf9679b85a5cd1e727aaa0ae5f132e6b160010180546106ab90611c0d565b336001600160a01b03831603610b2e5760405163424a22cb60e01b815260040160405180910390fd5b3360008181527f3c7bf052874fa81625121783266a03507bd2cd48b16e571c01a04e8dd3fb07aa602090815260408083206001600160a01b03871680855290835292819020805460ff191686151590811790915590519081529192917f17307eab39ab6107e8899845ad3d59bd9653f200f220920489ca2b5937696c31910160405180910390a35050565b610bc584848434610ed7565b610bcf3383610efb565b610bec57604051632f5de44f60e01b815260040160405180910390fd5b61060884848484611212565b600082815260046020908152604091829020600201805460ff19168415159081179091558251858152918201527febef0639d97fc849165f17474af6294a6f70c63430db6c735f714fa9b090f4ff910160405180910390a15050565b6060610c5f82610e94565b610c7b57604051624705a760e71b815260040160405180910390fd5b60008281527f99574a7094154bb123ae6ae102096f0bf9679b85a5cd1e727aaa0ae5f132e6b46020526040812080547f99574a7094154bb123ae6ae102096f0bf9679b85a5cd1e727aaa0ae5f132e6b1929190610cd790611c0d565b80601f0160208091040260200160405190810160405280929190818152602001828054610d0390611c0d565b8015610d505780601f10610d2557610100808354040283529160200191610d50565b820191906000526020600020905b815481529060010190602001808311610d3357829003601f168201915b505050505090506000826002018054610d6890611c0d565b80601f0160208091040260200160405190810160405280929190818152602001828054610d9490611c0d565b8015610de15780601f10610db657610100808354040283529160200191610de1565b820191906000526020600020905b815481529060010190602001808311610dc457829003601f168201915b505050505090508051600003610df957509392505050565b815115610e2c578082604051602001610e13929190611c47565b6040516020818303038152906040529350505050919050565b80610e3686611246565b604051602001610e13929190611c47565b6001600160a01b0391821660009081527f3c7bf052874fa81625121783266a03507bd2cd48b16e571c01a04e8dd3fb07aa6020908152604080832093909416825291909152205460ff1690565b60006103ab600080516020611dd583398151915283611347565b80156103ee5760405163b56d7c1b60e01b815260040160405180910390fd5b60006103ab825490565b8015610ef6576040516322b1813960e01b815260040160405180910390fd5b610608565b6000610f0682610e94565b610f235760405163c1b843ef60e01b815260040160405180910390fd5b6000610f2e83610a39565b9050806001600160a01b0316846001600160a01b03161480610f695750836001600160a01b0316610f5e8461072e565b6001600160a01b0316145b80610f795750610f798185610e47565b949350505050565b6000610f8c82610a39565b9050836001600160a01b0316816001600160a01b031614610fc057604051630f2db4ad60e01b815260040160405180910390fd5b6001600160a01b038316610fe7576040516340311a0960e01b815260040160405180910390fd5b610ff2848484611126565b6001600160a01b0384166000908152600080516020611db583398151915260205260409020600080516020611dd583398151915290611031908461135f565b506001600160a01b0384166000908152600282016020526040902061105690846111e4565b506110628184866111f0565b50600083815260038201602052604080822080546001600160a01b0319169055518491906001600160a01b038516907f8c5be1e5ebec7d5bd14f71427d1e84f3dd0314c0f7b2291e5b200ac8c7c3b925908390a482846001600160a01b0316866001600160a01b03167fddf252ad1be2c89b69c2b068fc378daa952ba7f163c4a11628f55a4df523b3ef60405160405180910390a45050505050565b60006103ff838361136b565b600080808061111986866113b7565b9097909650945050505050565b60008181526004602052604090206002015460ff166111d9576001600160a01b038316158061115c57506001600160a01b038216155b6111d95760405162461bcd60e51b815260206004820152604260248201527f50726f7879536274466163746f72793a2054686973206120536f756c626f756e60448201527f6420746f6b656e2e2049742063616e6e6f74206265207472616e736665727265606482015261321760f11b608482015260a401610479565b6103ee83838361141a565b60006103ff8383611425565b6000610f7984846001600160a01b038516611468565b60006103ff8383611507565b61121d848484610f81565b6112298484848461156b565b61060857604051639ff10cdd60e01b815260040160405180910390fd5b60608160000361126d5750506040805180820190915260018152600360fc1b602082015290565b8160005b8115611297578061128181611c76565b91506112909050600a83611ca5565b9150611271565b60008167ffffffffffffffff8111156112b2576112b2611a7d565b6040519080825280601f01601f1916602001820160405280156112dc576020820181803683370190505b5090505b8415610f79576112f1600183611cb9565b91506112fe600a86611ccc565b611309906030611bb7565b60f81b81838151811061131e5761131e611ce0565b60200101906001600160f81b031916908160001a905350611340600a86611ca5565b94506112e0565b600081815260018301602052604081205415156103ff565b60006103ff838361163c565b8154600090821061138f5760405163e637bf3b60e01b815260040160405180910390fd5b8260000182815481106113a4576113a4611ce0565b9060005260206000200154905092915050565b8154600090819083106113dd5760405163022fd82760e31b815260040160405180910390fd5b60008460000184815481106113f4576113f4611ce0565b906000526020600020906002020190508060000154816001015492509250509250929050565b6103ee8383836116f6565b60008181526001830160205260408120546103ab575081546001808201845560008481526020808220909301849055845493815293810190915260409092205590565b60008281526001840160205260408120548082036114cf5750506040805180820182528381526020808201848152865460018181018955600089815284812095516002909302909501918255915190820155865486845281880190925292909120556103ff565b828560000160018303815481106114e8576114e8611ce0565b90600052602060002090600202016001018190555060009150506103ff565b600081815260018301602052604081205480820361153857604051633d547ec560e21b815260040160405180910390fd5b83600001600182038154811061155057611550611ce0565b90600052602060002090600202016001015491505092915050565b60006001600160a01b0384163b61158457506001610f79565b600061160563150b7a0260e01b338887876040516024016115a89493929190611cf6565b604051602081830303815290604052906001600160e01b0319166020820180516001600160e01b038381831617835250505050604051806060016040528060328152602001611d83603291396001600160a01b0388169190611701565b905060008180602001905181019061161d9190611d33565b6001600160e01b031916630a85bd0160e11b1492505050949350505050565b6000818152600183016020526040812054801561094f5783546000908590600019810190811061166e5761166e611ce0565b906000526020600020015490508085600001600184038154811061169457611694611ce0565b60009182526020808320909101929092559182526001860190526040902081905583548490806116c6576116c6611d50565b60008281526020808220830160001990810183905590920190925593815260019485019093525050604081205590565b6103ee838383611710565b6060610f798484600085611754565b6001600160a01b0382166103ee5760008181527f99574a7094154bb123ae6ae102096f0bf9679b85a5cd1e727aaa0ae5f132e6b4602052604081206103ee91611811565b6060843b61177557604051632270d6bf60e21b815260040160405180910390fd5b600080866001600160a01b031685876040516117919190611d66565b60006040518083038185875af1925050503d80600081146117ce576040519150601f19603f3d011682016040523d82523d6000602084013e6117d3565b606091505b509150915081156117e7579150610f799050565b8051156117f75780518082602001fd5b8360405162461bcd60e51b815260040161047991906118e2565b50805461181d90611c0d565b6000825580601f1061182d575050565b601f01602090049060005260206000209081019061066391905b8082111561185b5760008155600101611847565b5090565b6001600160e01b03198116811461066357600080fd5b60006020828403121561188757600080fd5b81356103ff8161185f565b60005b838110156118ad578181015183820152602001611895565b50506000910152565b600081518084526118ce816020860160208601611892565b601f01601f19169290920160200192915050565b6020815260006103ff60208301846118b6565b60006020828403121561190757600080fd5b5035919050565b6001600160a01b038116811461066357600080fd5b6000806040838503121561193657600080fd5b82356119418161190e565b946020939093013593505050565b60008060006060848603121561196457600080fd5b833561196f8161190e565b9250602084013561197f8161190e565b929592945050506040919091013590565b600080600080606085870312156119a657600080fd5b843563ffffffff811681146119ba57600080fd5b935060208501359250604085013567ffffffffffffffff808211156119de57600080fd5b818701915087601f8301126119f257600080fd5b813581811115611a0157600080fd5b886020828501011115611a1357600080fd5b95989497505060200194505050565b600060208284031215611a3457600080fd5b81356103ff8161190e565b60008060408385031215611a5257600080fd5b8235611a5d8161190e565b915060208301358015158114611a7257600080fd5b809150509250929050565b634e487b7160e01b600052604160045260246000fd5b60008060008060808587031215611aa957600080fd5b8435611ab48161190e565b93506020850135611ac48161190e565b925060408501359150606085013567ffffffffffffffff80821115611ae857600080fd5b818701915087601f830112611afc57600080fd5b813581811115611b0e57611b0e611a7d565b604051601f8201601f19908116603f01168101908382118183101715611b3657611b36611a7d565b816040528281528a6020848701011115611b4f57600080fd5b82602086016020830137600060208483010152809550505050505092959194509250565b60008060408385031215611b8657600080fd5b8235611b918161190e565b91506020830135611a728161190e565b634e487b7160e01b600052601160045260246000fd5b808201808211156103ab576103ab611ba1565b63ffffffff8516815283602082015260606040820152816060820152818360808301376000818301608090810191909152601f909201601f191601019392505050565b600181811c90821680611c2157607f821691505b602082108103611c4157634e487b7160e01b600052602260045260246000fd5b50919050565b60008351611c59818460208801611892565b835190830190611c6d818360208801611892565b01949350505050565b600060018201611c8857611c88611ba1565b5060010190565b634e487b7160e01b600052601260045260246000fd5b600082611cb457611cb4611c8f565b500490565b818103818111156103ab576103ab611ba1565b600082611cdb57611cdb611c8f565b500690565b634e487b7160e01b600052603260045260246000fd5b6001600160a01b0385811682528416602082015260408101839052608060608201819052600090611d29908301846118b6565b9695505050505050565b600060208284031215611d4557600080fd5b81516103ff8161185f565b634e487b7160e01b600052603160045260246000fd5b60008251611d78818460208701611892565b919091019291505056fe4552433732313a207472616e7366657220746f206e6f6e20455243373231526563656976657220696d706c656d656e7465723c7bf052874fa81625121783266a03507bd2cd48b16e571c01a04e8dd3fb07a83c7bf052874fa81625121783266a03507bd2cd48b16e571c01a04e8dd3fb07a6a2646970667358221220501115407ea61b093bd2165df44a231f29ab5154b6303c2999a472d042b31ce464736f6c63430008130033",
    "linkReferences": {}
  },
  "methodIdentifiers": {
    "approve(address,uint256)": "095ea7b3",
    "balanceOf(address)": "70a08231",
    "getApproved(uint256)": "081812fc",
    "handle(uint32,bytes32,bytes)": "56d5d475",
    "isApprovedForAll(address,address)": "e985e9c5",
    "name()": "06fdde03",
    "ownerOf(uint256)": "6352211e",
    "safeTransferFrom(address,address,uint256)": "42842e0e",
    "safeTransferFrom(address,address,uint256,bytes)": "b88d4fde",
    "setApprovalForAll(address,bool)": "a22cb465",
    "setApprovedMessenger(bytes32)": "a4b7d162",
    "supportsInterface(bytes4)": "01ffc9a7",
    "switchUnbound(uint256)": "c762dc0a",
    "symbol()": "95d89b41",
    "tokenByIndex(uint256)": "4f6ccce7",
    "tokenOfOwnerByIndex(address,uint256)": "2f745c59",
    "tokenURI(uint256)": "c87b56dd",
    "totalSupply()": "18160ddd",
    "transferFrom(address,address,uint256)": "23b872dd"
  },
  "id": 3
}