{
  "abi": [
    {
      "inputs": [],
      "name": "AddressUtils__NotContract",
      "type": "error"
    },
    {
      "inputs": [],
      "name": "ERC165Base__InvalidInterfaceId",
      "type": "error"
    },
    {
      "inputs": [],
      "name": "ERC721Base__BalanceQueryZeroAddress",
      "type": "error"
    },
    {
      "inputs": [],
      "name": "ERC721Base__ERC721ReceiverNotImplemented",
      "type": "error"
    },
    {
      "inputs": [],
      "name": "ERC721Base__InvalidOwner",
      "type": "error"
    },
    {
      "inputs": [],
      "name": "ERC721Base__MintToZeroAddress",
      "type": "error"
    },
    {
      "inputs": [],
      "name": "ERC721Base__NonExistentToken",
      "type": "error"
    },
    {
      "inputs": [],
      "name": "ERC721Base__NotOwnerOrApproved",
      "type": "error"
    },
    {
      "inputs": [],
      "name": "ERC721Base__NotTokenOwner",
      "type": "error"
    },
    {
      "inputs": [],
      "name": "ERC721Base__SelfApproval",
      "type": "error"
    },
    {
      "inputs": [],
      "name": "ERC721Base__TokenAlreadyMinted",
      "type": "error"
    },
    {
      "inputs": [],
      "name": "ERC721Base__TransferToZeroAddress",
      "type": "error"
    },
    {
      "inputs": [],
      "name": "ERC721Metadata__NonExistentToken",
      "type": "error"
    },
    {
      "inputs": [],
      "name": "EnumerableMap__IndexOutOfBounds",
      "type": "error"
    },
    {
      "inputs": [],
      "name": "EnumerableMap__NonExistentKey",
      "type": "error"
    },
    {
      "inputs": [],
      "name": "EnumerableSet__IndexOutOfBounds",
      "type": "error"
    },
    {
      "inputs": [],
      "name": "Ownable__NotOwner",
      "type": "error"
    },
    {
      "inputs": [],
      "name": "Ownable__NotTransitiveOwner",
      "type": "error"
    },
    {
      "inputs": [],
      "name": "SolidStateERC721__PayableApproveNotSupported",
      "type": "error"
    },
    {
      "inputs": [],
      "name": "SolidStateERC721__PayableTransferNotSupported",
      "type": "error"
    },
    {
      "anonymous": false,
      "inputs": [
        {
          "indexed": true,
          "internalType": "address",
          "name": "owner",
          "type": "address"
        },
        {
          "indexed": true,
          "internalType": "address",
          "name": "operator",
          "type": "address"
        },
        {
          "indexed": true,
          "internalType": "uint256",
          "name": "tokenId",
          "type": "uint256"
        }
      ],
      "name": "Approval",
      "type": "event"
    },
    {
      "anonymous": false,
      "inputs": [
        {
          "indexed": true,
          "internalType": "address",
          "name": "owner",
          "type": "address"
        },
        {
          "indexed": true,
          "internalType": "address",
          "name": "operator",
          "type": "address"
        },
        {
          "indexed": false,
          "internalType": "bool",
          "name": "approved",
          "type": "bool"
        }
      ],
      "name": "ApprovalForAll",
      "type": "event"
    },
    {
      "anonymous": false,
      "inputs": [
        {
          "indexed": true,
          "internalType": "address",
          "name": "previousOwner",
          "type": "address"
        },
        {
          "indexed": true,
          "internalType": "address",
          "name": "newOwner",
          "type": "address"
        }
      ],
      "name": "OwnershipTransferred",
      "type": "event"
    },
    {
      "anonymous": false,
      "inputs": [
        {
          "indexed": false,
          "internalType": "uint32",
          "name": "origin",
          "type": "uint32"
        },
        {
          "indexed": false,
          "internalType": "bytes32",
          "name": "sender",
          "type": "bytes32"
        },
        {
          "indexed": false,
          "internalType": "bytes",
          "name": "message",
          "type": "bytes"
        }
      ],
      "name": "ReceivedMessage",
      "type": "event"
    },
    {
      "anonymous": false,
      "inputs": [
        {
          "indexed": false,
          "internalType": "uint256",
          "name": "_tokenId",
          "type": "uint256"
        },
        {
          "indexed": false,
          "internalType": "bool",
          "name": "_switch",
          "type": "bool"
        }
      ],
      "name": "SwitchUnbound",
      "type": "event"
    },
    {
      "anonymous": false,
      "inputs": [
        {
          "indexed": true,
          "internalType": "address",
          "name": "from",
          "type": "address"
        },
        {
          "indexed": true,
          "internalType": "address",
          "name": "to",
          "type": "address"
        },
        {
          "indexed": true,
          "internalType": "uint256",
          "name": "tokenId",
          "type": "uint256"
        }
      ],
      "name": "Transfer",
      "type": "event"
    },
    {
      "inputs": [
        {
          "internalType": "address",
          "name": "operator",
          "type": "address"
        },
        {
          "internalType": "uint256",
          "name": "tokenId",
          "type": "uint256"
        }
      ],
      "name": "approve",
      "outputs": [],
      "stateMutability": "payable",
      "type": "function"
    },
    {
      "inputs": [
        {
          "internalType": "address",
          "name": "account",
          "type": "address"
        }
      ],
      "name": "balanceOf",
      "outputs": [
        {
          "internalType": "uint256",
          "name": "",
          "type": "uint256"
        }
      ],
      "stateMutability": "view",
      "type": "function"
    },
    {
      "inputs": [
        {
          "internalType": "uint256",
          "name": "tokenId",
          "type": "uint256"
        }
      ],
      "name": "getApproved",
      "outputs": [
        {
          "internalType": "address",
          "name": "",
          "type": "address"
        }
      ],
      "stateMutability": "view",
      "type": "function"
    },
    {
      "inputs": [
        {
          "internalType": "uint32",
          "name": "_origin",
          "type": "uint32"
        },
        {
          "internalType": "bytes32",
          "name": "_sender",
          "type": "bytes32"
        },
        {
          "internalType": "bytes",
          "name": "_message",
          "type": "bytes"
        }
      ],
      "name": "handle",
      "outputs": [],
      "stateMutability": "nonpayable",
      "type": "function"
    },
    {
      "inputs": [
        {
          "internalType": "address",
          "name": "account",
          "type": "address"
        },
        {
          "internalType": "address",
          "name": "operator",
          "type": "address"
        }
      ],
      "name": "isApprovedForAll",
      "outputs": [
        {
          "internalType": "bool",
          "name": "",
          "type": "bool"
        }
      ],
      "stateMutability": "view",
      "type": "function"
    },
    {
      "inputs": [],
      "name": "name",
      "outputs": [
        {
          "internalType": "string",
          "name": "",
          "type": "string"
        }
      ],
      "stateMutability": "view",
      "type": "function"
    },
    {
      "inputs": [
        {
          "internalType": "bytes",
          "name": "_abi",
          "type": "bytes"
        },
        {
          "internalType": "string",
          "name": "_functionSignature",
          "type": "string"
        }
      ],
      "name": "ownerCalls",
      "outputs": [],
      "stateMutability": "nonpayable",
      "type": "function"
    },
    {
      "inputs": [
        {
          "internalType": "uint256",
          "name": "tokenId",
          "type": "uint256"
        }
      ],
      "name": "ownerOf",
      "outputs": [
        {
          "internalType": "address",
          "name": "",
          "type": "address"
        }
      ],
      "stateMutability": "view",
      "type": "function"
    },
    {
      "inputs": [
        {
          "internalType": "address",
          "name": "from",
          "type": "address"
        },
        {
          "internalType": "address",
          "name": "to",
          "type": "address"
        },
        {
          "internalType": "uint256",
          "name": "tokenId",
          "type": "uint256"
        }
      ],
      "name": "safeTransferFrom",
      "outputs": [],
      "stateMutability": "payable",
      "type": "function"
    },
    {
      "inputs": [
        {
          "internalType": "address",
          "name": "from",
          "type": "address"
        },
        {
          "internalType": "address",
          "name": "to",
          "type": "address"
        },
        {
          "internalType": "uint256",
          "name": "tokenId",
          "type": "uint256"
        },
        {
          "internalType": "bytes",
          "name": "data",
          "type": "bytes"
        }
      ],
      "name": "safeTransferFrom",
      "outputs": [],
      "stateMutability": "payable",
      "type": "function"
    },
    {
      "inputs": [
        {
          "internalType": "address",
          "name": "operator",
          "type": "address"
        },
        {
          "internalType": "bool",
          "name": "status",
          "type": "bool"
        }
      ],
      "name": "setApprovalForAll",
      "outputs": [],
      "stateMutability": "nonpayable",
      "type": "function"
    },
    {
      "inputs": [
        {
          "internalType": "bytes32",
          "name": "_addr",
          "type": "bytes32"
        }
      ],
      "name": "setApprovedMessenger",
      "outputs": [],
      "stateMutability": "nonpayable",
      "type": "function"
    },
    {
      "inputs": [
        {
          "internalType": "bytes4",
          "name": "interfaceId",
          "type": "bytes4"
        }
      ],
      "name": "supportsInterface",
      "outputs": [
        {
          "internalType": "bool",
          "name": "",
          "type": "bool"
        }
      ],
      "stateMutability": "view",
      "type": "function"
    },
    {
      "inputs": [
        {
          "internalType": "uint256",
          "name": "_tokenId",
          "type": "uint256"
        }
      ],
      "name": "switchUnbound",
      "outputs": [],
      "stateMutability": "nonpayable",
      "type": "function"
    },
    {
      "inputs": [],
      "name": "symbol",
      "outputs": [
        {
          "internalType": "string",
          "name": "",
          "type": "string"
        }
      ],
      "stateMutability": "view",
      "type": "function"
    },
    {
      "inputs": [
        {
          "internalType": "uint256",
          "name": "index",
          "type": "uint256"
        }
      ],
      "name": "tokenByIndex",
      "outputs": [
        {
          "internalType": "uint256",
          "name": "",
          "type": "uint256"
        }
      ],
      "stateMutability": "view",
      "type": "function"
    },
    {
      "inputs": [
        {
          "internalType": "address",
          "name": "owner",
          "type": "address"
        },
        {
          "internalType": "uint256",
          "name": "index",
          "type": "uint256"
        }
      ],
      "name": "tokenOfOwnerByIndex",
      "outputs": [
        {
          "internalType": "uint256",
          "name": "",
          "type": "uint256"
        }
      ],
      "stateMutability": "view",
      "type": "function"
    },
    {
      "inputs": [
        {
          "internalType": "uint256",
          "name": "tokenId",
          "type": "uint256"
        }
      ],
      "name": "tokenURI",
      "outputs": [
        {
          "internalType": "string",
          "name": "",
          "type": "string"
        }
      ],
      "stateMutability": "view",
      "type": "function"
    },
    {
      "inputs": [],
      "name": "totalSupply",
      "outputs": [
        {
          "internalType": "uint256",
          "name": "",
          "type": "uint256"
        }
      ],
      "stateMutability": "view",
      "type": "function"
    },
    {
      "inputs": [
        {
          "internalType": "address",
          "name": "from",
          "type": "address"
        },
        {
          "internalType": "address",
          "name": "to",
          "type": "address"
        },
        {
          "internalType": "uint256",
          "name": "tokenId",
          "type": "uint256"
        }
      ],
      "name": "transferFrom",
      "outputs": [],
      "stateMutability": "payable",
      "type": "function"
    }
  ],
  "bytecode": {
    "object": "0x608060405234801561001057600080fd5b50612002806100206000396000f3fe60806040526004361061011f5760003560e01c806356d5d475116100a0578063a4b7d16211610064578063a4b7d16214610306578063b88d4fde14610326578063c762dc0a14610339578063c87b56dd14610359578063e985e9c51461037957600080fd5b806356d5d475146102715780636352211e1461029157806370a08231146102b157806395d89b41146102d1578063a22cb465146102e657600080fd5b806318160ddd116100e757806318160ddd146101e857806323b872dd1461020b5780632f745c591461021e57806342842e0e1461023e5780634f6ccce71461025157600080fd5b806301ffc9a71461012457806306fdde0314610159578063081812fc1461017b578063095ea7b3146101b357806317d26dac146101c8575b600080fd5b34801561013057600080fd5b5061014461013f3660046119b3565b610399565b60405190151581526020015b60405180910390f35b34801561016557600080fd5b5061016e6103dc565b6040516101509190611a20565b34801561018757600080fd5b5061019b610196366004611a33565b6103eb565b6040516001600160a01b039091168152602001610150565b6101c66101c1366004611a61565b6103f6565b005b3480156101d457600080fd5b506101c66101e3366004611b39565b610404565b3480156101f457600080fd5b506101fd610532565b604051908152602001610150565b6101c6610219366004611bb1565b61053c565b34801561022a57600080fd5b506101fd610239366004611a61565b610547565b6101c661024c366004611bb1565b61055a565b34801561025d57600080fd5b506101fd61026c366004611a33565b610565565b34801561027d57600080fd5b506101c661028c366004611bf2565b610570565b34801561029d57600080fd5b5061019b6102ac366004611a33565b6106b6565b3480156102bd57600080fd5b506101fd6102cc366004611c84565b6106c1565b3480156102dd57600080fd5b5061016e6106cc565b3480156102f257600080fd5b506101c6610301366004611ca1565b6106d6565b34801561031257600080fd5b506101c6610321366004611a33565b6106e0565b6101c6610334366004611cdf565b61071e565b34801561034557600080fd5b506101c6610354366004611a33565b610730565b34801561036557600080fd5b5061016e610374366004611a33565b610777565b34801561038557600080fd5b50610144610394366004611d4b565b610782565b6001600160e01b0319811660009081527ffc606c433378e3a7e0a6a531deac289b66caa1b4aa8554fd4ab2c6f1570f92d8602052604081205460ff165b92915050565b60606103e661078e565b905090565b60006103d68261083f565b61040082826108a2565b5050565b61040c6109a5565b6001600160a01b0316336001600160a01b03161461043d57604051632f7a8ee160e01b815260040160405180910390fd5b6040805160048152602481019182905260009130919061045e908590611d79565b60408051918290039091206020830180516001600160e01b03166001600160e01b0319909216919091179052516104959190611d79565b6000604051808303816000865af19150503d80600081146104d2576040519150601f19603f3d011682016040523d82523d6000602084013e6104d7565b606091505b505090508061052d5760405162461bcd60e51b815260206004820152601760248201527f4661696c656420746f2063616c6c2066756e6374696f6e00000000000000000060448201526064015b60405180910390fd5b505050565b60006103e66109d3565b61052d8383836109ec565b60006105538383610a2a565b9392505050565b61052d838383610a59565b60006103d682610a74565b60035483146105d15760405162461bcd60e51b815260206004820152602760248201527f50726f7879536274466163746f72793a204e6f7420617070726f766564206d6560448201526639b9b2b733b2b960c91b6064820152608401610524565b600080806105e184860186611bb1565b60085492955090935091506105f68482610a95565b604080516060810182526001600160a01b03858116825260208083018681526000848601818152878252600490935294909420925183546001600160a01b0319169216919091178255915160018083019190915591516002909101805460ff191691151591909117905561066b908290611dab565b6008556040517fc9f92737086b645b21611169d04fa8cc1b05a453ea6a9befbf3930d619e23bec906106a4908a908a908a908a90611dbe565b60405180910390a15050505050505050565b60006103d682610b78565b60006103d682610bbc565b60606103e6610c13565b6104008282610c44565b6106e86109a5565b6001600160a01b0316336001600160a01b03161461071957604051632f7a8ee160e01b815260040160405180910390fd5b600355565b61072a84848484610cf8565b50505050565b6107386109a5565b6001600160a01b0316336001600160a01b03161461076957604051632f7a8ee160e01b815260040160405180910390fd5b610774816001610d37565b50565b60606103d682610d93565b60006105538383610f86565b60607f99574a7094154bb123ae6ae102096f0bf9679b85a5cd1e727aaa0ae5f132e6b180546107bc90611e01565b80601f01602080910402602001604051908101604052809291908181526020018280546107e890611e01565b80156108355780601f1061080a57610100808354040283529160200191610835565b820191906000526020600020905b81548152906001019060200180831161081857829003601f168201915b5050505050905090565b600061084a82610fd3565b6108675760405163c1b843ef60e01b815260040160405180910390fd5b5060009081527f3c7bf052874fa81625121783266a03507bd2cd48b16e571c01a04e8dd3fb07a960205260409020546001600160a01b031690565b6108ad828234610fed565b60006108b882610b78565b9050806001600160a01b0316836001600160a01b0316036108ec5760405163424a22cb60e01b815260040160405180910390fd5b336001600160a01b0382161480159061090c575061090a8133610f86565b155b1561092a57604051632f5de44f60e01b815260040160405180910390fd5b60008281527f3c7bf052874fa81625121783266a03507bd2cd48b16e571c01a04e8dd3fb07a9602052604080822080546001600160a01b0319166001600160a01b0387811691821790925591518593918516917f8c5be1e5ebec7d5bd14f71427d1e84f3dd0314c0f7b2291e5b200ac8c7c3b92591a4505050565b7f8a22373512790c48b83a1fe2efdd2888d4a917bcdc24d0adf63e60f671680460546001600160a01b031690565b60006103e6600080516020611fad83398151915261100c565b6109f883838334611016565b610a02338261103a565b610a1f57604051632f5de44f60e01b815260040160405180910390fd5b61052d8383836110c0565b6001600160a01b0382166000908152600080516020611f8d83398151915260205260408120610553908361123d565b61052d83838360405180602001604052806000815250610cf8565b6000610a8e600080516020611fad83398151915283611249565b5092915050565b6001600160a01b038216610abc576040516311f2988d60e11b815260040160405180910390fd5b610ac581610fd3565b15610ae357604051630d86bb7b60e31b815260040160405180910390fd5b610aef60008383611265565b6001600160a01b0382166000908152600080516020611f8d83398151915260205260409020600080516020611fad83398151915290610b2e9083611322565b50610b3a81838561132e565b5060405182906001600160a01b038516906000907fddf252ad1be2c89b69c2b068fc378daa952ba7f163c4a11628f55a4df523b3ef908290a4505050565b600080610b93600080516020611fad83398151915284611344565b90506001600160a01b0381166103d657604051637e1a7d8b60e01b815260040160405180910390fd5b60006001600160a01b038216610be557604051630810ff9760e41b815260040160405180910390fd5b6001600160a01b0382166000908152600080516020611f8d833981519152602052604090206103d69061100c565b60607f99574a7094154bb123ae6ae102096f0bf9679b85a5cd1e727aaa0ae5f132e6b160010180546107bc90611e01565b336001600160a01b03831603610c6d5760405163424a22cb60e01b815260040160405180910390fd5b3360008181527f3c7bf052874fa81625121783266a03507bd2cd48b16e571c01a04e8dd3fb07aa602090815260408083206001600160a01b03871680855290835292819020805460ff191686151590811790915590519081529192917f17307eab39ab6107e8899845ad3d59bd9653f200f220920489ca2b5937696c31910160405180910390a35050565b610d0484848434611016565b610d0e338361103a565b610d2b57604051632f5de44f60e01b815260040160405180910390fd5b61072a84848484611350565b600082815260046020908152604091829020600201805460ff19168415159081179091558251858152918201527febef0639d97fc849165f17474af6294a6f70c63430db6c735f714fa9b090f4ff910160405180910390a15050565b6060610d9e82610fd3565b610dba57604051624705a760e71b815260040160405180910390fd5b60008281527f99574a7094154bb123ae6ae102096f0bf9679b85a5cd1e727aaa0ae5f132e6b46020526040812080547f99574a7094154bb123ae6ae102096f0bf9679b85a5cd1e727aaa0ae5f132e6b1929190610e1690611e01565b80601f0160208091040260200160405190810160405280929190818152602001828054610e4290611e01565b8015610e8f5780601f10610e6457610100808354040283529160200191610e8f565b820191906000526020600020905b815481529060010190602001808311610e7257829003601f168201915b505050505090506000826002018054610ea790611e01565b80601f0160208091040260200160405190810160405280929190818152602001828054610ed390611e01565b8015610f205780601f10610ef557610100808354040283529160200191610f20565b820191906000526020600020905b815481529060010190602001808311610f0357829003601f168201915b505050505090508051600003610f3857509392505050565b815115610f6b578082604051602001610f52929190611e3b565b6040516020818303038152906040529350505050919050565b80610f7586611384565b604051602001610f52929190611e3b565b6001600160a01b0391821660009081527f3c7bf052874fa81625121783266a03507bd2cd48b16e571c01a04e8dd3fb07aa6020908152604080832093909416825291909152205460ff1690565b60006103d6600080516020611fad83398151915283611485565b801561052d5760405163b56d7c1b60e01b815260040160405180910390fd5b60006103d6825490565b8015611035576040516322b1813960e01b815260040160405180910390fd5b61072a565b600061104582610fd3565b6110625760405163c1b843ef60e01b815260040160405180910390fd5b600061106d83610b78565b9050806001600160a01b0316846001600160a01b031614806110a85750836001600160a01b031661109d8461083f565b6001600160a01b0316145b806110b857506110b88185610f86565b949350505050565b60006110cb82610b78565b9050836001600160a01b0316816001600160a01b0316146110ff57604051630f2db4ad60e01b815260040160405180910390fd5b6001600160a01b038316611126576040516340311a0960e01b815260040160405180910390fd5b611131848484611265565b6001600160a01b0384166000908152600080516020611f8d83398151915260205260409020600080516020611fad83398151915290611170908461149d565b506001600160a01b038416600090815260028201602052604090206111959084611322565b506111a181848661132e565b50600083815260038201602052604080822080546001600160a01b0319169055518491906001600160a01b038516907f8c5be1e5ebec7d5bd14f71427d1e84f3dd0314c0f7b2291e5b200ac8c7c3b925908390a482846001600160a01b0316866001600160a01b03167fddf252ad1be2c89b69c2b068fc378daa952ba7f163c4a11628f55a4df523b3ef60405160405180910390a45050505050565b600061055383836114a9565b600080808061125886866114f5565b9097909650945050505050565b60008181526004602052604090206002015460ff16611317576001600160a01b038316158061129b57506001600160a01b038216155b6113175760405162461bcd60e51b815260206004820152604160248201527f50726f7879536274466163746f72793a2054686973206120536f756c626f756e60448201527f6420746f6b656e2e2049742063616e6e6f74206265207472616e7366657272656064820152601960fa1b608482015260a401610524565b61052d838383611558565b60006105538383611563565b60006110b884846001600160a01b0385166115a6565b60006105538383611645565b61135b8484846110c0565b611367848484846116a9565b61072a57604051639ff10cdd60e01b815260040160405180910390fd5b6060816000036113ab5750506040805180820190915260018152600360fc1b602082015290565b8160005b81156113d557806113bf81611e6a565b91506113ce9050600a83611e99565b91506113af565b60008167ffffffffffffffff8111156113f0576113f0611a8d565b6040519080825280601f01601f19166020018201604052801561141a576020820181803683370190505b5090505b84156110b85761142f600183611ead565b915061143c600a86611ec0565b611447906030611dab565b60f81b81838151811061145c5761145c611ed4565b60200101906001600160f81b031916908160001a90535061147e600a86611e99565b945061141e565b60008181526001830160205260408120541515610553565b6000610553838361177a565b815460009082106114cd5760405163e637bf3b60e01b815260040160405180910390fd5b8260000182815481106114e2576114e2611ed4565b9060005260206000200154905092915050565b81546000908190831061151b5760405163022fd82760e31b815260040160405180910390fd5b600084600001848154811061153257611532611ed4565b906000526020600020906002020190508060000154816001015492509250509250929050565b61052d838383611834565b60008181526001830160205260408120546103d6575081546001808201845560008481526020808220909301849055845493815293810190915260409092205590565b600082815260018401602052604081205480820361160d575050604080518082018252838152602080820184815286546001818101895560008981528481209551600290930290950191825591519082015586548684528188019092529290912055610553565b8285600001600183038154811061162657611626611ed4565b9060005260206000209060020201600101819055506000915050610553565b600081815260018301602052604081205480820361167657604051633d547ec560e21b815260040160405180910390fd5b83600001600182038154811061168e5761168e611ed4565b90600052602060002090600202016001015491505092915050565b60006001600160a01b0384163b6116c2575060016110b8565b600061174363150b7a0260e01b338887876040516024016116e69493929190611eea565b604051602081830303815290604052906001600160e01b0319166020820180516001600160e01b038381831617835250505050604051806060016040528060328152602001611f5b603291396001600160a01b038816919061183f565b905060008180602001905181019061175b9190611f27565b6001600160e01b031916630a85bd0160e11b1492505050949350505050565b60008181526001830160205260408120548015610a8e578354600090859060001981019081106117ac576117ac611ed4565b90600052602060002001549050808560000160018403815481106117d2576117d2611ed4565b600091825260208083209091019290925591825260018601905260409020819055835484908061180457611804611f44565b60008281526020808220830160001990810183905590920190925593815260019485019093525050604081205590565b61052d83838361184e565b60606110b88484600085611892565b6001600160a01b03821661052d5760008181527f99574a7094154bb123ae6ae102096f0bf9679b85a5cd1e727aaa0ae5f132e6b46020526040812061052d9161194f565b6060843b6118b357604051632270d6bf60e21b815260040160405180910390fd5b600080866001600160a01b031685876040516118cf9190611d79565b60006040518083038185875af1925050503d806000811461190c576040519150601f19603f3d011682016040523d82523d6000602084013e611911565b606091505b509150915081156119255791506110b89050565b8051156119355780518082602001fd5b8360405162461bcd60e51b81526004016105249190611a20565b50805461195b90611e01565b6000825580601f1061196b575050565b601f01602090049060005260206000209081019061077491905b808211156119995760008155600101611985565b5090565b6001600160e01b03198116811461077457600080fd5b6000602082840312156119c557600080fd5b81356105538161199d565b60005b838110156119eb5781810151838201526020016119d3565b50506000910152565b60008151808452611a0c8160208601602086016119d0565b601f01601f19169290920160200192915050565b60208152600061055360208301846119f4565b600060208284031215611a4557600080fd5b5035919050565b6001600160a01b038116811461077457600080fd5b60008060408385031215611a7457600080fd5b8235611a7f81611a4c565b946020939093013593505050565b634e487b7160e01b600052604160045260246000fd5b600067ffffffffffffffff80841115611abe57611abe611a8d565b604051601f8501601f19908116603f01168101908282118183101715611ae657611ae6611a8d565b81604052809350858152868686011115611aff57600080fd5b858560208301376000602087830101525050509392505050565b600082601f830112611b2a57600080fd5b61055383833560208501611aa3565b60008060408385031215611b4c57600080fd5b823567ffffffffffffffff80821115611b6457600080fd5b611b7086838701611b19565b93506020850135915080821115611b8657600080fd5b508301601f81018513611b9857600080fd5b611ba785823560208401611aa3565b9150509250929050565b600080600060608486031215611bc657600080fd5b8335611bd181611a4c565b92506020840135611be181611a4c565b929592945050506040919091013590565b60008060008060608587031215611c0857600080fd5b843563ffffffff81168114611c1c57600080fd5b935060208501359250604085013567ffffffffffffffff80821115611c4057600080fd5b818701915087601f830112611c5457600080fd5b813581811115611c6357600080fd5b886020828501011115611c7557600080fd5b95989497505060200194505050565b600060208284031215611c9657600080fd5b813561055381611a4c565b60008060408385031215611cb457600080fd5b8235611cbf81611a4c565b915060208301358015158114611cd457600080fd5b809150509250929050565b60008060008060808587031215611cf557600080fd5b8435611d0081611a4c565b93506020850135611d1081611a4c565b925060408501359150606085013567ffffffffffffffff811115611d3357600080fd5b611d3f87828801611b19565b91505092959194509250565b60008060408385031215611d5e57600080fd5b8235611d6981611a4c565b91506020830135611cd481611a4c565b60008251611d8b8184602087016119d0565b9190910192915050565b634e487b7160e01b600052601160045260246000fd5b808201808211156103d6576103d6611d95565b63ffffffff8516815283602082015260606040820152816060820152818360808301376000818301608090810191909152601f909201601f191601019392505050565b600181811c90821680611e1557607f821691505b602082108103611e3557634e487b7160e01b600052602260045260246000fd5b50919050565b60008351611e4d8184602088016119d0565b835190830190611e618183602088016119d0565b01949350505050565b600060018201611e7c57611e7c611d95565b5060010190565b634e487b7160e01b600052601260045260246000fd5b600082611ea857611ea8611e83565b500490565b818103818111156103d6576103d6611d95565b600082611ecf57611ecf611e83565b500690565b634e487b7160e01b600052603260045260246000fd5b6001600160a01b0385811682528416602082015260408101839052608060608201819052600090611f1d908301846119f4565b9695505050505050565b600060208284031215611f3957600080fd5b81516105538161199d565b634e487b7160e01b600052603160045260246000fdfe4552433732313a207472616e7366657220746f206e6f6e20455243373231526563656976657220696d706c656d656e7465723c7bf052874fa81625121783266a03507bd2cd48b16e571c01a04e8dd3fb07a83c7bf052874fa81625121783266a03507bd2cd48b16e571c01a04e8dd3fb07a6a2646970667358221220915b1a64cbc765afa19c4a0d0da94e0cfd4438e70ede36cb35329d19151b106564736f6c63430008130033",
    "linkReferences": {}
  },
  "methodIdentifiers": {
    "approve(address,uint256)": "095ea7b3",
    "balanceOf(address)": "70a08231",
    "getApproved(uint256)": "081812fc",
    "handle(uint32,bytes32,bytes)": "56d5d475",
    "isApprovedForAll(address,address)": "e985e9c5",
    "name()": "06fdde03",
    "ownerCalls(bytes,string)": "17d26dac",
    "ownerOf(uint256)": "6352211e",
    "safeTransferFrom(address,address,uint256)": "42842e0e",
    "safeTransferFrom(address,address,uint256,bytes)": "b88d4fde",
    "setApprovalForAll(address,bool)": "a22cb465",
    "setApprovedMessenger(bytes32)": "a4b7d162",
    "supportsInterface(bytes4)": "01ffc9a7",
    "switchUnbound(uint256)": "c762dc0a",
    "symbol()": "95d89b41",
    "tokenByIndex(uint256)": "4f6ccce7",
    "tokenOfOwnerByIndex(address,uint256)": "2f745c59",
    "tokenURI(uint256)": "c87b56dd",
    "totalSupply()": "18160ddd",
    "transferFrom(address,address,uint256)": "23b872dd"
  },
  "id": 4
}