{
  "abi": [
    {
      "inputs": [],
      "name": "Ownable__NotOwner",
      "type": "error"
    },
    {
      "inputs": [],
      "name": "Ownable__NotTransitiveOwner",
      "type": "error"
    },
    {
      "anonymous": false,
      "inputs": [
        {
          "indexed": true,
          "internalType": "address",
          "name": "previousOwner",
          "type": "address"
        },
        {
          "indexed": true,
          "internalType": "address",
          "name": "newOwner",
          "type": "address"
        }
      ],
      "name": "OwnershipTransferred",
      "type": "event"
    },
    {
      "inputs": [
        {
          "internalType": "uint256",
          "name": "_cantomonId",
          "type": "uint256"
        }
      ],
      "name": "evolveCantomon",
      "outputs": [],
      "stateMutability": "nonpayable",
      "type": "function"
    },
    {
      "inputs": [
        {
          "internalType": "uint256",
          "name": "_cantomonId",
          "type": "uint256"
        }
      ],
      "name": "feedCantomon",
      "outputs": [],
      "stateMutability": "nonpayable",
      "type": "function"
    },
    {
      "inputs": [
        {
          "internalType": "uint256",
          "name": "_cantomonId",
          "type": "uint256"
        }
      ],
      "name": "trainCantomon",
      "outputs": [],
      "stateMutability": "nonpayable",
      "type": "function"
    }
  ],
  "bytecode": {
    "object": "0x608060405234801561001057600080fd5b5061018c806100206000396000f3fe608060405234801561001057600080fd5b50600436106100415760003560e01c806358888905146100465780637f0b4d4114610046578063edc3148314610046575b600080fd5b61005961005436600461010d565b61005b565b005b6040516331a9108f60e11b815260048101829052819033903090636352211e90602401602060405180830381865afa15801561009b573d6000803e3d6000fd5b505050506040513d601f19601f820116820180604052508101906100bf9190610126565b6001600160a01b0316146101095760405162461bcd60e51b815260206004820152600d60248201526c2737ba1027232a1037bbb732b960991b604482015260640160405180910390fd5b5050565b60006020828403121561011f57600080fd5b5035919050565b60006020828403121561013857600080fd5b81516001600160a01b038116811461014f57600080fd5b939250505056fea26469706673582212200732a7a4fc26215fdcc4aba19b8ba37a82950bd39d341a533b28ab682863cf0164736f6c63430008130033",
    "linkReferences": {}
  },
  "methodIdentifiers": {
    "evolveCantomon(uint256)": "7f0b4d41",
    "feedCantomon(uint256)": "edc31483",
    "trainCantomon(uint256)": "58888905"
  },
  "id": 1
}