{
  "abi": [
    {
      "inputs": [],
      "name": "Ownable__NotOwner",
      "type": "error"
    },
    {
      "inputs": [],
      "name": "Ownable__NotTransitiveOwner",
      "type": "error"
    },
    {
      "anonymous": false,
      "inputs": [
        {
          "indexed": true,
          "internalType": "address",
          "name": "previousOwner",
          "type": "address"
        },
        {
          "indexed": true,
          "internalType": "address",
          "name": "newOwner",
          "type": "address"
        }
      ],
      "name": "OwnershipTransferred",
      "type": "event"
    },
    {
      "inputs": [
        {
          "internalType": "uint256",
          "name": "_cantomonId",
          "type": "uint256"
        },
        {
          "internalType": "uint256",
          "name": "_dojoId",
          "type": "uint256"
        }
      ],
      "name": "battleNPC",
      "outputs": [],
      "stateMutability": "nonpayable",
      "type": "function"
    }
  ],
  "bytecode": {
    "object": "0x608060405234801561001057600080fd5b50610280806100206000396000f3fe608060405234801561001057600080fd5b506004361061002b5760003560e01c806309cf2af014610030575b600080fd5b61004361003e3660046101d1565b610045565b005b6040516331a9108f60e11b815260048101839052829033903090636352211e90602401602060405180830381865afa158015610085573d6000803e3d6000fd5b505050506040513d601f19601f820116820180604052508101906100a991906101f3565b6001600160a01b0316146100f45760405162461bcd60e51b815260206004820152600d60248201526c2737ba1027232a1037bbb732b960991b60448201526064015b60405180910390fd5b600083815260076020908152604080832060055461ffff168452600201909152902060048101546101605760405162461bcd60e51b815260206004820152601660248201527543616e746f6d6f6e20686173206e6f20656e6572677960501b60448201526064016100eb565b600084815260076020908152604080832060055461ffff168085526001808301855283862060039093018552838620898752600a8652848720928752600290920190945291842060048601805492959394919391929091906101c3908490610223565b909155505050505050505050565b600080604083850312156101e457600080fd5b50508035926020909101359150565b60006020828403121561020557600080fd5b81516001600160a01b038116811461021c57600080fd5b9392505050565b8181038181111561024457634e487b7160e01b600052601160045260246000fd5b9291505056fea26469706673582212202ad9ee848d8aee46ddcc7d9271034493d62f7e853263227017b80c1c70118cfc64736f6c63430008130033",
    "linkReferences": {}
  },
  "methodIdentifiers": {
    "battleNPC(uint256,uint256)": "09cf2af0"
  },
  "id": 0
}