{
  "abi": [
    {
      "inputs": [
        {
          "internalType": "string",
          "name": "_name",
          "type": "string"
        },
        {
          "internalType": "string",
          "name": "_symbol",
          "type": "string"
        },
        {
          "internalType": "string",
          "name": "_uri",
          "type": "string"
        },
        {
          "internalType": "uint256",
          "name": "_timestamp",
          "type": "uint256"
        }
      ],
      "stateMutability": "nonpayable",
      "type": "constructor"
    },
    {
      "inputs": [],
      "name": "ApprovalCallerNotOwnerNorApproved",
      "type": "error"
    },
    {
      "inputs": [],
      "name": "ApprovalQueryForNonexistentToken",
      "type": "error"
    },
    {
      "inputs": [],
      "name": "BalanceQueryForZeroAddress",
      "type": "error"
    },
    {
      "inputs": [],
      "name": "InvalidQueryRange",
      "type": "error"
    },
    {
      "inputs": [],
      "name": "MintERC2309QuantityExceedsLimit",
      "type": "error"
    },
    {
      "inputs": [],
      "name": "MintToZeroAddress",
      "type": "error"
    },
    {
      "inputs": [],
      "name": "MintZeroQuantity",
      "type": "error"
    },
    {
      "inputs": [],
      "name": "OwnerQueryForNonexistentToken",
      "type": "error"
    },
    {
      "inputs": [],
      "name": "OwnershipNotInitializedForExtraData",
      "type": "error"
    },
    {
      "inputs": [],
      "name": "TransferCallerNotOwnerNorApproved",
      "type": "error"
    },
    {
      "inputs": [],
      "name": "TransferFromIncorrectOwner",
      "type": "error"
    },
    {
      "inputs": [],
      "name": "TransferToNonERC721ReceiverImplementer",
      "type": "error"
    },
    {
      "inputs": [],
      "name": "TransferToZeroAddress",
      "type": "error"
    },
    {
      "inputs": [],
      "name": "URIQueryForNonexistentToken",
      "type": "error"
    },
    {
      "anonymous": false,
      "inputs": [
        {
          "indexed": true,
          "internalType": "address",
          "name": "owner",
          "type": "address"
        },
        {
          "indexed": true,
          "internalType": "address",
          "name": "approved",
          "type": "address"
        },
        {
          "indexed": true,
          "internalType": "uint256",
          "name": "tokenId",
          "type": "uint256"
        }
      ],
      "name": "Approval",
      "type": "event"
    },
    {
      "anonymous": false,
      "inputs": [
        {
          "indexed": true,
          "internalType": "address",
          "name": "owner",
          "type": "address"
        },
        {
          "indexed": true,
          "internalType": "address",
          "name": "operator",
          "type": "address"
        },
        {
          "indexed": false,
          "internalType": "bool",
          "name": "approved",
          "type": "bool"
        }
      ],
      "name": "ApprovalForAll",
      "type": "event"
    },
    {
      "anonymous": false,
      "inputs": [
        {
          "indexed": true,
          "internalType": "uint256",
          "name": "fromTokenId",
          "type": "uint256"
        },
        {
          "indexed": false,
          "internalType": "uint256",
          "name": "toTokenId",
          "type": "uint256"
        },
        {
          "indexed": true,
          "internalType": "address",
          "name": "from",
          "type": "address"
        },
        {
          "indexed": true,
          "internalType": "address",
          "name": "to",
          "type": "address"
        }
      ],
      "name": "ConsecutiveTransfer",
      "type": "event"
    },
    {
      "anonymous": false,
      "inputs": [
        {
          "indexed": true,
          "internalType": "address",
          "name": "previousOwner",
          "type": "address"
        },
        {
          "indexed": true,
          "internalType": "address",
          "name": "newOwner",
          "type": "address"
        }
      ],
      "name": "OwnershipTransferred",
      "type": "event"
    },
    {
      "anonymous": false,
      "inputs": [
        {
          "indexed": true,
          "internalType": "address",
          "name": "from",
          "type": "address"
        },
        {
          "indexed": true,
          "internalType": "address",
          "name": "to",
          "type": "address"
        },
        {
          "indexed": true,
          "internalType": "uint256",
          "name": "tokenId",
          "type": "uint256"
        }
      ],
      "name": "Transfer",
      "type": "event"
    },
    {
      "inputs": [],
      "name": "MAX_SUPPLY",
      "outputs": [
        {
          "internalType": "uint256",
          "name": "",
          "type": "uint256"
        }
      ],
      "stateMutability": "view",
      "type": "function"
    },
    {
      "inputs": [],
      "name": "MINT_OPEN",
      "outputs": [
        {
          "internalType": "bool",
          "name": "",
          "type": "bool"
        }
      ],
      "stateMutability": "view",
      "type": "function"
    },
    {
      "inputs": [],
      "name": "PRICE",
      "outputs": [
        {
          "internalType": "uint256",
          "name": "",
          "type": "uint256"
        }
      ],
      "stateMutability": "view",
      "type": "function"
    },
    {
      "inputs": [],
      "name": "REVEAL_TIMESTAMP",
      "outputs": [
        {
          "internalType": "uint256",
          "name": "",
          "type": "uint256"
        }
      ],
      "stateMutability": "view",
      "type": "function"
    },
    {
      "inputs": [
        {
          "internalType": "address",
          "name": "to",
          "type": "address"
        },
        {
          "internalType": "uint256",
          "name": "tokenId",
          "type": "uint256"
        }
      ],
      "name": "approve",
      "outputs": [],
      "stateMutability": "payable",
      "type": "function"
    },
    {
      "inputs": [
        {
          "internalType": "address",
          "name": "owner",
          "type": "address"
        }
      ],
      "name": "balanceOf",
      "outputs": [
        {
          "internalType": "uint256",
          "name": "",
          "type": "uint256"
        }
      ],
      "stateMutability": "view",
      "type": "function"
    },
    {
      "inputs": [
        {
          "internalType": "uint256",
          "name": "tokenId",
          "type": "uint256"
        }
      ],
      "name": "explicitOwnershipOf",
      "outputs": [
        {
          "components": [
            {
              "internalType": "address",
              "name": "addr",
              "type": "address"
            },
            {
              "internalType": "uint64",
              "name": "startTimestamp",
              "type": "uint64"
            },
            {
              "internalType": "bool",
              "name": "burned",
              "type": "bool"
            },
            {
              "internalType": "uint24",
              "name": "extraData",
              "type": "uint24"
            }
          ],
          "internalType": "struct IERC721A.TokenOwnership",
          "name": "",
          "type": "tuple"
        }
      ],
      "stateMutability": "view",
      "type": "function"
    },
    {
      "inputs": [
        {
          "internalType": "uint256[]",
          "name": "tokenIds",
          "type": "uint256[]"
        }
      ],
      "name": "explicitOwnershipsOf",
      "outputs": [
        {
          "components": [
            {
              "internalType": "address",
              "name": "addr",
              "type": "address"
            },
            {
              "internalType": "uint64",
              "name": "startTimestamp",
              "type": "uint64"
            },
            {
              "internalType": "bool",
              "name": "burned",
              "type": "bool"
            },
            {
              "internalType": "uint24",
              "name": "extraData",
              "type": "uint24"
            }
          ],
          "internalType": "struct IERC721A.TokenOwnership[]",
          "name": "",
          "type": "tuple[]"
        }
      ],
      "stateMutability": "view",
      "type": "function"
    },
    {
      "inputs": [
        {
          "internalType": "uint256",
          "name": "tokenId",
          "type": "uint256"
        }
      ],
      "name": "getApproved",
      "outputs": [
        {
          "internalType": "address",
          "name": "",
          "type": "address"
        }
      ],
      "stateMutability": "view",
      "type": "function"
    },
    {
      "inputs": [],
      "name": "getBaseURI",
      "outputs": [
        {
          "internalType": "string",
          "name": "",
          "type": "string"
        }
      ],
      "stateMutability": "view",
      "type": "function"
    },
    {
      "inputs": [
        {
          "internalType": "address",
          "name": "owner",
          "type": "address"
        },
        {
          "internalType": "address",
          "name": "operator",
          "type": "address"
        }
      ],
      "name": "isApprovedForAll",
      "outputs": [
        {
          "internalType": "bool",
          "name": "",
          "type": "bool"
        }
      ],
      "stateMutability": "view",
      "type": "function"
    },
    {
      "inputs": [
        {
          "internalType": "address",
          "name": "_to",
          "type": "address"
        },
        {
          "internalType": "uint256",
          "name": "_amount",
          "type": "uint256"
        }
      ],
      "name": "mint",
      "outputs": [],
      "stateMutability": "payable",
      "type": "function"
    },
    {
      "inputs": [],
      "name": "name",
      "outputs": [
        {
          "internalType": "string",
          "name": "",
          "type": "string"
        }
      ],
      "stateMutability": "view",
      "type": "function"
    },
    {
      "inputs": [],
      "name": "owner",
      "outputs": [
        {
          "internalType": "address",
          "name": "",
          "type": "address"
        }
      ],
      "stateMutability": "view",
      "type": "function"
    },
    {
      "inputs": [
        {
          "internalType": "uint256",
          "name": "tokenId",
          "type": "uint256"
        }
      ],
      "name": "ownerOf",
      "outputs": [
        {
          "internalType": "address",
          "name": "",
          "type": "address"
        }
      ],
      "stateMutability": "view",
      "type": "function"
    },
    {
      "inputs": [],
      "name": "renounceOwnership",
      "outputs": [],
      "stateMutability": "nonpayable",
      "type": "function"
    },
    {
      "inputs": [
        {
          "internalType": "address",
          "name": "from",
          "type": "address"
        },
        {
          "internalType": "address",
          "name": "to",
          "type": "address"
        },
        {
          "internalType": "uint256",
          "name": "tokenId",
          "type": "uint256"
        }
      ],
      "name": "safeTransferFrom",
      "outputs": [],
      "stateMutability": "payable",
      "type": "function"
    },
    {
      "inputs": [
        {
          "internalType": "address",
          "name": "from",
          "type": "address"
        },
        {
          "internalType": "address",
          "name": "to",
          "type": "address"
        },
        {
          "internalType": "uint256",
          "name": "tokenId",
          "type": "uint256"
        },
        {
          "internalType": "bytes",
          "name": "_data",
          "type": "bytes"
        }
      ],
      "name": "safeTransferFrom",
      "outputs": [],
      "stateMutability": "payable",
      "type": "function"
    },
    {
      "inputs": [
        {
          "internalType": "address",
          "name": "operator",
          "type": "address"
        },
        {
          "internalType": "bool",
          "name": "approved",
          "type": "bool"
        }
      ],
      "name": "setApprovalForAll",
      "outputs": [],
      "stateMutability": "nonpayable",
      "type": "function"
    },
    {
      "inputs": [
        {
          "internalType": "string",
          "name": "_uri",
          "type": "string"
        }
      ],
      "name": "setBaseURI",
      "outputs": [],
      "stateMutability": "nonpayable",
      "type": "function"
    },
    {
      "inputs": [
        {
          "internalType": "bool",
          "name": "_isOpen",
          "type": "bool"
        }
      ],
      "name": "setMintOpen",
      "outputs": [],
      "stateMutability": "nonpayable",
      "type": "function"
    },
    {
      "inputs": [
        {
          "internalType": "uint256",
          "name": "_newPrice",
          "type": "uint256"
        }
      ],
      "name": "setPrice",
      "outputs": [],
      "stateMutability": "nonpayable",
      "type": "function"
    },
    {
      "inputs": [
        {
          "internalType": "uint256",
          "name": "_timestamp",
          "type": "uint256"
        }
      ],
      "name": "setRevealTimestamp",
      "outputs": [],
      "stateMutability": "nonpayable",
      "type": "function"
    },
    {
      "inputs": [
        {
          "internalType": "bytes4",
          "name": "interfaceId",
          "type": "bytes4"
        }
      ],
      "name": "supportsInterface",
      "outputs": [
        {
          "internalType": "bool",
          "name": "",
          "type": "bool"
        }
      ],
      "stateMutability": "view",
      "type": "function"
    },
    {
      "inputs": [],
      "name": "symbol",
      "outputs": [
        {
          "internalType": "string",
          "name": "",
          "type": "string"
        }
      ],
      "stateMutability": "view",
      "type": "function"
    },
    {
      "inputs": [
        {
          "internalType": "uint256",
          "name": "tokenId",
          "type": "uint256"
        }
      ],
      "name": "tokenURI",
      "outputs": [
        {
          "internalType": "string",
          "name": "",
          "type": "string"
        }
      ],
      "stateMutability": "view",
      "type": "function"
    },
    {
      "inputs": [
        {
          "internalType": "address",
          "name": "owner",
          "type": "address"
        }
      ],
      "name": "tokensOfOwner",
      "outputs": [
        {
          "internalType": "uint256[]",
          "name": "",
          "type": "uint256[]"
        }
      ],
      "stateMutability": "view",
      "type": "function"
    },
    {
      "inputs": [
        {
          "internalType": "address",
          "name": "owner",
          "type": "address"
        },
        {
          "internalType": "uint256",
          "name": "start",
          "type": "uint256"
        },
        {
          "internalType": "uint256",
          "name": "stop",
          "type": "uint256"
        }
      ],
      "name": "tokensOfOwnerIn",
      "outputs": [
        {
          "internalType": "uint256[]",
          "name": "",
          "type": "uint256[]"
        }
      ],
      "stateMutability": "view",
      "type": "function"
    },
    {
      "inputs": [],
      "name": "totalSupply",
      "outputs": [
        {
          "internalType": "uint256",
          "name": "",
          "type": "uint256"
        }
      ],
      "stateMutability": "view",
      "type": "function"
    },
    {
      "inputs": [
        {
          "internalType": "address",
          "name": "from",
          "type": "address"
        },
        {
          "internalType": "address",
          "name": "to",
          "type": "address"
        },
        {
          "internalType": "uint256",
          "name": "tokenId",
          "type": "uint256"
        }
      ],
      "name": "transferFrom",
      "outputs": [],
      "stateMutability": "payable",
      "type": "function"
    },
    {
      "inputs": [
        {
          "internalType": "address",
          "name": "newOwner",
          "type": "address"
        }
      ],
      "name": "transferOwnership",
      "outputs": [],
      "stateMutability": "nonpayable",
      "type": "function"
    },
    {
      "inputs": [
        {
          "internalType": "address",
          "name": "_to",
          "type": "address"
        }
      ],
      "name": "withdrawAll",
      "outputs": [],
      "stateMutability": "nonpayable",
      "type": "function"
    },
    {
      "inputs": [
        {
          "internalType": "contract IERC20",
          "name": "token",
          "type": "address"
        }
      ],
      "name": "withdrawTokens",
      "outputs": [],
      "stateMutability": "nonpayable",
      "type": "function"
    }
  ],
  "bytecode": {
    "object": "0x608060405267016345785d8a0000600955612710600a55600c805460ff191690553480156200002d57600080fd5b506040516200249538038062002495833981016040819052620000509162000244565b838360026200006083826200036c565b5060036200006f82826200036c565b505060008055506200008133620000a1565b6200008c82620000f3565b62000097816200010f565b5050505062000438565b600880546001600160a01b038381166001600160a01b0319831681179093556040519116919082907f8be0079c531659141344cd1fd0a4f28419497f9722a3daafe3b4186f6b6457e090600090a35050565b620000fd6200011e565b600d6200010b82826200036c565b5050565b620001196200011e565b600b55565b6008546001600160a01b031633146200017d5760405162461bcd60e51b815260206004820181905260248201527f4f776e61626c653a2063616c6c6572206973206e6f7420746865206f776e6572604482015260640160405180910390fd5b565b634e487b7160e01b600052604160045260246000fd5b600082601f830112620001a757600080fd5b81516001600160401b0380821115620001c457620001c46200017f565b604051601f8301601f19908116603f01168101908282118183101715620001ef57620001ef6200017f565b816040528381526020925086838588010111156200020c57600080fd5b600091505b8382101562000230578582018301518183018401529082019062000211565b600093810190920192909252949350505050565b600080600080608085870312156200025b57600080fd5b84516001600160401b03808211156200027357600080fd5b620002818883890162000195565b955060208701519150808211156200029857600080fd5b620002a68883890162000195565b94506040870151915080821115620002bd57600080fd5b50620002cc8782880162000195565b606096909601519497939650505050565b600181811c90821680620002f257607f821691505b6020821081036200031357634e487b7160e01b600052602260045260246000fd5b50919050565b601f8211156200036757600081815260208120601f850160051c81016020861015620003425750805b601f850160051c820191505b8181101562000363578281556001016200034e565b5050505b505050565b81516001600160401b038111156200038857620003886200017f565b620003a081620003998454620002dd565b8462000319565b602080601f831160018114620003d85760008415620003bf5750858301515b600019600386901b1c1916600185901b17855562000363565b600085815260208120601f198616915b828110156200040957888601518255948401946001909101908401620003e8565b5085821015620004285787850151600019600388901b60f8161c191681555b5050505050600190811b01905550565b61204d80620004486000396000f3fe6080604052600436106101ee5760003560e01c806370a082311161010d57806399a2557a116100a0578063c87b56dd1161006f578063c87b56dd14610546578063e985e9c514610566578063f2fde38b146105af578063f8004d31146105cf578063fa09e630146105ef57600080fd5b806399a2557a146104c6578063a22cb465146104e6578063b88d4fde14610506578063c23dc68f1461051957600080fd5b80638d859f3e116100dc5780638d859f3e1461045d5780638da5cb5b1461047357806391b7f5ed1461049157806395d89b41146104b157600080fd5b806370a08231146103e6578063714c539814610406578063715018a61461041b5780638462151c1461043057600080fd5b806323b872dd1161018557806349df728c1161015457806349df728c1461035957806355f804b3146103795780635bbb2177146103995780636352211e146103c657600080fd5b806323b872dd1461030a57806332cb6b0c1461031d57806340c10f191461033357806342842e0e1461034657600080fd5b8063088b6943116101c1578063088b6943146102a4578063095ea7b3146102be57806318160ddd146102d157806318e20a38146102f457600080fd5b8063018a2c37146101f357806301ffc9a71461021557806306fdde031461024a578063081812fc1461026c575b600080fd5b3480156101ff57600080fd5b5061021361020e3660046118c3565b61060f565b005b34801561022157600080fd5b506102356102303660046118f2565b61061c565b60405190151581526020015b60405180910390f35b34801561025657600080fd5b5061025f61066e565b604051610241919061195f565b34801561027857600080fd5b5061028c6102873660046118c3565b610700565b6040516001600160a01b039091168152602001610241565b3480156102b057600080fd5b50600c546102359060ff1681565b6102136102cc366004611987565b610744565b3480156102dd57600080fd5b50600154600054035b604051908152602001610241565b34801561030057600080fd5b506102e6600b5481565b6102136103183660046119b3565b6107e4565b34801561032957600080fd5b506102e6600a5481565b610213610341366004611987565b61097d565b6102136103543660046119b3565b610a90565b34801561036557600080fd5b506102136103743660046119f4565b610ab0565b34801561038557600080fd5b50610213610394366004611a9d565b610ba6565b3480156103a557600080fd5b506103b96103b4366004611ae6565b610bba565b6040516102419190611b98565b3480156103d257600080fd5b5061028c6103e13660046118c3565b610c86565b3480156103f257600080fd5b506102e66104013660046119f4565b610c91565b34801561041257600080fd5b5061025f610ce0565b34801561042757600080fd5b50610213610cef565b34801561043c57600080fd5b5061045061044b3660046119f4565b610d03565b6040516102419190611bda565b34801561046957600080fd5b506102e660095481565b34801561047f57600080fd5b506008546001600160a01b031661028c565b34801561049d57600080fd5b506102136104ac3660046118c3565b610e0c565b3480156104bd57600080fd5b5061025f610e19565b3480156104d257600080fd5b506104506104e1366004611c12565b610e28565b3480156104f257600080fd5b50610213610501366004611c55565b610fa2565b610213610514366004611c8e565b61100e565b34801561052557600080fd5b506105396105343660046118c3565b611058565b6040516102419190611d0e565b34801561055257600080fd5b5061025f6105613660046118c3565b6110d0565b34801561057257600080fd5b50610235610581366004611d1c565b6001600160a01b03918216600090815260076020908152604080832093909416825291909152205460ff1690565b3480156105bb57600080fd5b506102136105ca3660046119f4565b6111f7565b3480156105db57600080fd5b506102136105ea366004611d4a565b611270565b3480156105fb57600080fd5b5061021361060a3660046119f4565b61128b565b61061761132a565b600b55565b60006301ffc9a760e01b6001600160e01b03198316148061064d57506380ac58cd60e01b6001600160e01b03198316145b806106685750635b5e139f60e01b6001600160e01b03198316145b92915050565b60606002805461067d90611d67565b80601f01602080910402602001604051908101604052809291908181526020018280546106a990611d67565b80156106f65780601f106106cb576101008083540402835291602001916106f6565b820191906000526020600020905b8154815290600101906020018083116106d957829003601f168201915b5050505050905090565b600061070b82611384565b610728576040516333d1c03960e21b815260040160405180910390fd5b506000908152600660205260409020546001600160a01b031690565b600061074f82610c86565b9050336001600160a01b038216146107885761076b8133610581565b610788576040516367d9dca160e11b815260040160405180910390fd5b60008281526006602052604080822080546001600160a01b0319166001600160a01b0387811691821790925591518593918516917f8c5be1e5ebec7d5bd14f71427d1e84f3dd0314c0f7b2291e5b200ac8c7c3b92591a4505050565b60006107ef826113ab565b9050836001600160a01b0316816001600160a01b0316146108225760405162a1148160e81b815260040160405180910390fd5b60008281526006602052604090208054338082146001600160a01b0388169091141761086f576108528633610581565b61086f57604051632ce44b5f60e11b815260040160405180910390fd5b6001600160a01b03851661089657604051633a954ecd60e21b815260040160405180910390fd5b80156108a157600082555b6001600160a01b038681166000908152600560205260408082208054600019019055918716808252919020805460010190554260a01b17600160e11b17600085815260046020526040812091909155600160e11b84169003610933576001840160008181526004602052604081205490036109315760005481146109315760008181526004602052604090208490555b505b83856001600160a01b0316876001600160a01b03167fddf252ad1be2c89b69c2b068fc378daa952ba7f163c4a11628f55a4df523b3ef60405160405180910390a45b505050505050565b600c5460ff166109ca5760405162461bcd60e51b815260206004820152601360248201527226b4b73a34b7339034b9903737ba1037b832b760691b60448201526064015b60405180910390fd5b6000811180156109f35750600a54816109e66001546000540390565b6109f09190611da1565b11155b610a305760405162461bcd60e51b815260206004820152600e60248201526d105b5bdd5b9d081a5b9d985b1a5960921b60448201526064016109c1565b600954341015610a825760405162461bcd60e51b815260206004820152601f60248201527f45746865722076616c75652073656e74206973206e6f7420636f72726563740060448201526064016109c1565b610a8c8282611412565b5050565b610aab8383836040518060200160405280600081525061100e565b505050565b610ab861132a565b6040516370a0823160e01b81523060048201526000906001600160a01b038316906370a0823190602401602060405180830381865afa158015610aff573d6000803e3d6000fd5b505050506040513d601f19601f82011682018060405250810190610b239190611dc2565b90506001600160a01b03821663a9059cbb336040516001600160e01b031960e084901b1681526001600160a01b039091166004820152602481018490526044016020604051808303816000875af1158015610b82573d6000803e3d6000fd5b505050506040513d601f19601f82011682018060405250810190610aab9190611ddb565b610bae61132a565b600d610a8c8282611e3e565b60608160008167ffffffffffffffff811115610bd857610bd8611a11565b604051908082528060200260200182016040528015610c2a57816020015b604080516080810182526000808252602080830182905292820181905260608201528252600019909201910181610bf65790505b50905060005b828114610c7d57610c58868683818110610c4c57610c4c611efe565b90506020020135611058565b828281518110610c6a57610c6a611efe565b6020908102919091010152600101610c30565b50949350505050565b6000610668826113ab565b60006001600160a01b038216610cba576040516323d3ad8160e21b815260040160405180910390fd5b506001600160a01b031660009081526005602052604090205467ffffffffffffffff1690565b6060600d805461067d90611d67565b610cf761132a565b610d016000611510565b565b60606000806000610d1385610c91565b905060008167ffffffffffffffff811115610d3057610d30611a11565b604051908082528060200260200182016040528015610d59578160200160208202803683370190505b509050610d8660408051608081018252600080825260208201819052918101829052606081019190915290565b60005b838614610e0057610d9981611562565b91508160400151610df85781516001600160a01b031615610db957815194505b876001600160a01b0316856001600160a01b031603610df85780838780600101985081518110610deb57610deb611efe565b6020026020010181815250505b600101610d89565b50909695505050505050565b610e1461132a565b600955565b60606003805461067d90611d67565b6060818310610e4a57604051631960ccad60e11b815260040160405180910390fd5b600080610e5660005490565b905080841115610e64578093505b6000610e6f87610c91565b905084861015610e8e5785850381811015610e88578091505b50610e92565b5060005b60008167ffffffffffffffff811115610ead57610ead611a11565b604051908082528060200260200182016040528015610ed6578160200160208202803683370190505b50905081600003610eec579350610f9b92505050565b6000610ef788611058565b905060008160400151610f08575080515b885b888114158015610f1a5750848714155b15610f8f57610f2881611562565b92508260400151610f875782516001600160a01b031615610f4857825191505b8a6001600160a01b0316826001600160a01b031603610f875780848880600101995081518110610f7a57610f7a611efe565b6020026020010181815250505b600101610f0a565b50505092835250909150505b9392505050565b3360008181526007602090815260408083206001600160a01b03871680855290835292819020805460ff191686151590811790915590519081529192917f17307eab39ab6107e8899845ad3d59bd9653f200f220920489ca2b5937696c31910160405180910390a35050565b6110198484846107e4565b6001600160a01b0383163b15611052576110358484848461159e565b611052576040516368d2bf6b60e11b815260040160405180910390fd5b50505050565b60408051608080820183526000808352602080840182905283850182905260608085018390528551938401865282845290830182905293820181905292810183905290915060005483106110ac5792915050565b6110b583611562565b90508060400151156110c75792915050565b610f9b8361168a565b60606110db82611384565b6110f857604051630a14c4b560e41b815260040160405180910390fd5b600b5460000361119457600d805461110f90611d67565b80601f016020809104026020016040519081016040528092919081815260200182805461113b90611d67565b80156111885780601f1061115d57610100808354040283529160200191611188565b820191906000526020600020905b81548152906001019060200180831161116b57829003601f168201915b50505050509050919050565b60408051602081019091526000808252600d80546111b190611d67565b9050111561066857600d6111cf6111ca600b54866116bf565b611710565b6040516020016111e0929190611f14565b604051602081830303815290604052905092915050565b6111ff61132a565b6001600160a01b0381166112645760405162461bcd60e51b815260206004820152602660248201527f4f776e61626c653a206e6577206f776e657220697320746865207a65726f206160448201526564647265737360d01b60648201526084016109c1565b61126d81611510565b50565b61127861132a565b600c805460ff1916911515919091179055565b61129361132a565b6000816001600160a01b03164760405160006040518083038185875af1925050503d80600081146112e0576040519150601f19603f3d011682016040523d82523d6000602084013e6112e5565b606091505b5050905080610a8c5760405162461bcd60e51b815260206004820152601160248201527015da5d1a191c985dd85b0819985a5b1959607a1b60448201526064016109c1565b6008546001600160a01b03163314610d015760405162461bcd60e51b815260206004820181905260248201527f4f776e61626c653a2063616c6c6572206973206e6f7420746865206f776e657260448201526064016109c1565b6000805482108015610668575050600090815260046020526040902054600160e01b161590565b6000816000548110156113f95760008181526004602052604081205490600160e01b821690036113f7575b80600003610f9b5750600019016000818152600460205260409020546113d6565b505b604051636f96cda160e11b815260040160405180910390fd5b60008054908290036114375760405163b562e8dd60e01b815260040160405180910390fd5b6001600160a01b03831660008181526005602090815260408083208054680100000000000000018802019055848352600490915281206001851460e11b4260a01b178317905582840190839083907fddf252ad1be2c89b69c2b068fc378daa952ba7f163c4a11628f55a4df523b3ef8180a4600183015b8181146114e657808360007fddf252ad1be2c89b69c2b068fc378daa952ba7f163c4a11628f55a4df523b3ef600080a46001016114ae565b508160000361150757604051622e076360e81b815260040160405180910390fd5b60005550505050565b600880546001600160a01b038381166001600160a01b0319831681179093556040519116919082907f8be0079c531659141344cd1fd0a4f28419497f9722a3daafe3b4186f6b6457e090600090a35050565b604080516080810182526000808252602082018190529181018290526060810191909152600082815260046020526040902054610668906117a3565b604051630a85bd0160e11b81526000906001600160a01b0385169063150b7a02906115d3903390899088908890600401611f9b565b6020604051808303816000875af192505050801561160e575060408051601f3d908101601f1916820190925261160b91810190611fd8565b60015b61166c573d80801561163c576040519150601f19603f3d011682016040523d82523d6000602084013e611641565b606091505b508051600003611664576040516368d2bf6b60e11b815260040160405180910390fd5b805181602001fd5b6001600160e01b031916630a85bd0160e11b1490505b949350505050565b6040805160808101825260008082526020820181905291810182905260608101919091526106686116ba836113ab565b6117a3565b6000806116cf6001546000540390565b83856040516020016116e391815260200190565b6040516020818303038152906040528051906020012060001c6117069190611da1565b6116829190611ff5565b6060600061171d836117eb565b600101905060008167ffffffffffffffff81111561173d5761173d611a11565b6040519080825280601f01601f191660200182016040528015611767576020820181803683370190505b5090508181016020015b600019016f181899199a1a9b1b9c1cb0b131b232b360811b600a86061a8153600a850494508461177157509392505050565b604080516080810182526001600160a01b038316815260a083901c67ffffffffffffffff166020820152600160e01b831615159181019190915260e89190911c606082015290565b60008072184f03e93ff9f4daa797ed6e38ed64bf6a1f0160401b831061182a5772184f03e93ff9f4daa797ed6e38ed64bf6a1f0160401b830492506040015b6d04ee2d6d415b85acef81000000008310611856576d04ee2d6d415b85acef8100000000830492506020015b662386f26fc10000831061187457662386f26fc10000830492506010015b6305f5e100831061188c576305f5e100830492506008015b61271083106118a057612710830492506004015b606483106118b2576064830492506002015b600a83106106685760010192915050565b6000602082840312156118d557600080fd5b5035919050565b6001600160e01b03198116811461126d57600080fd5b60006020828403121561190457600080fd5b8135610f9b816118dc565b60005b8381101561192a578181015183820152602001611912565b50506000910152565b6000815180845261194b81602086016020860161190f565b601f01601f19169290920160200192915050565b602081526000610f9b6020830184611933565b6001600160a01b038116811461126d57600080fd5b6000806040838503121561199a57600080fd5b82356119a581611972565b946020939093013593505050565b6000806000606084860312156119c857600080fd5b83356119d381611972565b925060208401356119e381611972565b929592945050506040919091013590565b600060208284031215611a0657600080fd5b8135610f9b81611972565b634e487b7160e01b600052604160045260246000fd5b600067ffffffffffffffff80841115611a4257611a42611a11565b604051601f8501601f19908116603f01168101908282118183101715611a6a57611a6a611a11565b81604052809350858152868686011115611a8357600080fd5b858560208301376000602087830101525050509392505050565b600060208284031215611aaf57600080fd5b813567ffffffffffffffff811115611ac657600080fd5b8201601f81018413611ad757600080fd5b61168284823560208401611a27565b60008060208385031215611af957600080fd5b823567ffffffffffffffff80821115611b1157600080fd5b818501915085601f830112611b2557600080fd5b813581811115611b3457600080fd5b8660208260051b8501011115611b4957600080fd5b60209290920196919550909350505050565b80516001600160a01b0316825260208082015167ffffffffffffffff169083015260408082015115159083015260609081015162ffffff16910152565b6020808252825182820181905260009190848201906040850190845b81811015610e0057611bc7838551611b5b565b9284019260809290920191600101611bb4565b6020808252825182820181905260009190848201906040850190845b81811015610e0057835183529284019291840191600101611bf6565b600080600060608486031215611c2757600080fd5b8335611c3281611972565b95602085013595506040909401359392505050565b801515811461126d57600080fd5b60008060408385031215611c6857600080fd5b8235611c7381611972565b91506020830135611c8381611c47565b809150509250929050565b60008060008060808587031215611ca457600080fd5b8435611caf81611972565b93506020850135611cbf81611972565b925060408501359150606085013567ffffffffffffffff811115611ce257600080fd5b8501601f81018713611cf357600080fd5b611d0287823560208401611a27565b91505092959194509250565b608081016106688284611b5b565b60008060408385031215611d2f57600080fd5b8235611d3a81611972565b91506020830135611c8381611972565b600060208284031215611d5c57600080fd5b8135610f9b81611c47565b600181811c90821680611d7b57607f821691505b602082108103611d9b57634e487b7160e01b600052602260045260246000fd5b50919050565b8082018082111561066857634e487b7160e01b600052601160045260246000fd5b600060208284031215611dd457600080fd5b5051919050565b600060208284031215611ded57600080fd5b8151610f9b81611c47565b601f821115610aab57600081815260208120601f850160051c81016020861015611e1f5750805b601f850160051c820191505b8181101561097557828155600101611e2b565b815167ffffffffffffffff811115611e5857611e58611a11565b611e6c81611e668454611d67565b84611df8565b602080601f831160018114611ea15760008415611e895750858301515b600019600386901b1c1916600185901b178555610975565b600085815260208120601f198616915b82811015611ed057888601518255948401946001909101908401611eb1565b5085821015611eee5787850151600019600388901b60f8161c191681555b5050505050600190811b01905550565b634e487b7160e01b600052603260045260246000fd5b6000808454611f2281611d67565b60018281168015611f3a5760018114611f4f57611f7e565b60ff1984168752821515830287019450611f7e565b8860005260208060002060005b85811015611f755781548a820152908401908201611f5c565b50505082870194505b505050508351611f9281836020880161190f565b01949350505050565b6001600160a01b0385811682528416602082015260408101839052608060608201819052600090611fce90830184611933565b9695505050505050565b600060208284031215611fea57600080fd5b8151610f9b816118dc565b60008261201257634e487b7160e01b600052601260045260246000fd5b50069056fea2646970667358221220497d044e76e1a51a3ebc923c86a0c6993ee2d3e637e95deafbaedfd4497d122f64736f6c63430008130033",
    "linkReferences": {}
  },
  "methodIdentifiers": {
    "MAX_SUPPLY()": "32cb6b0c",
    "MINT_OPEN()": "088b6943",
    "PRICE()": "8d859f3e",
    "REVEAL_TIMESTAMP()": "18e20a38",
    "approve(address,uint256)": "095ea7b3",
    "balanceOf(address)": "70a08231",
    "explicitOwnershipOf(uint256)": "c23dc68f",
    "explicitOwnershipsOf(uint256[])": "5bbb2177",
    "getApproved(uint256)": "081812fc",
    "getBaseURI()": "714c5398",
    "isApprovedForAll(address,address)": "e985e9c5",
    "mint(address,uint256)": "40c10f19",
    "name()": "06fdde03",
    "owner()": "8da5cb5b",
    "ownerOf(uint256)": "6352211e",
    "renounceOwnership()": "715018a6",
    "safeTransferFrom(address,address,uint256)": "42842e0e",
    "safeTransferFrom(address,address,uint256,bytes)": "b88d4fde",
    "setApprovalForAll(address,bool)": "a22cb465",
    "setBaseURI(string)": "55f804b3",
    "setMintOpen(bool)": "f8004d31",
    "setPrice(uint256)": "91b7f5ed",
    "setRevealTimestamp(uint256)": "018a2c37",
    "supportsInterface(bytes4)": "01ffc9a7",
    "symbol()": "95d89b41",
    "tokenURI(uint256)": "c87b56dd",
    "tokensOfOwner(address)": "8462151c",
    "tokensOfOwnerIn(address,uint256,uint256)": "99a2557a",
    "totalSupply()": "18160ddd",
    "transferFrom(address,address,uint256)": "23b872dd",
    "transferOwnership(address)": "f2fde38b",
    "withdrawAll(address)": "fa09e630",
    "withdrawTokens(address)": "49df728c"
  },
  "id": 9
}